:100000000000042071030000590300005B0300009E
:100010005D0300005F0300006103000000000000BA
:10002000000000000000000000000000630300006A
:10003000650300000000000067030000650A00007F
:100040006B0300006B0300006B0300006B030000F8
:100050006B0300006B0300006B0300006B030000E8
:100060006B0300006B0300006B0300006B030000D8
:100070006B0300006B0300006B0300006B030000C8
:100080006B0300006B0300006B0300006B030000B8
:100090006B0300006B0300006B0300006B030000A8
:1000A0006B0300006B0300006B0300006B03000098
:1000B0006B0300006B030000000000000000000064
:1000C0006B0300006B0300006B0300006B03000078
:1000D0006B0300006B0300006B0300006B03000068
:1000E0006B0300006B0300006B03000000000000C6
:1000F000000000006B030000000000006B03000024
:1001000000000000000000000000000000000000EF
:1001100000000000000000000000000000000000DF
:1001200000000000000000000000000000000000CF
:1001300000000000000000000000000000000000BF
:1001400000000000000000000000000000000000AF
:10015000000000000000000000000000000000009F
:10016000000000000000000000000000000000008F
:10017000000000000000000000000000000000007F
:10018000000000000000000000000000000000006F
:10019000000000000000000000000000000000005F
:1001A000000000000000000000000000000000004F
:1001B000000000000000000000000000000000003F
:1001C000000000000000000000000000000000002F
:1001D000000000000000000000000000000000001F
:1001E000000000000000000000000000000000000F
:1001F00000000000000000000000000000000000FF
:10020000344935480A1A02D0072291438D463349B2
:1002100033480A1A06D00722914381F30988022243
:1002200082F314882F483049304A00F041F83048B2
:100230003049314A00F03CF830483149314A00F049
:1002400037F831483149324A00F032F83148324902
:10025000324A00F02DF832483249334A00F028F88B
:1002600032483349334A00F023F8334833490022F7
:1002700000F029F832483349002200F024F83248CF
:100280003249091A00F0FCFF314A90471F482049C3
:10029000884205D00268043003B4904703BCF7E7F6
:1002A00000208646EC46002000212A4A9047FEE7BF
:1002B000884207D0521A05D0037801300B70013103
:1002C000013AF9D17047884202D002700130FAE752
:1002D000704700000000042000E00320000004201C
:1002E0000000042038130000000000200800002057
:1002F000CC030000CC03000094120000381300006F
:100300000000002000000020941200009412000061
:100310009412000094120000941200009412000045
:1003200094120000941200003813000040130000E3
:1003300008000020080000200800002048000020DD
:1003400048000020480000204800002048200020ED
:1003500099030000550B0000FEE7FEE7FEE7FEE70D
:10036000FEE7FEE7FEE7FEE7FEE7FEE700F002B885
:10037000FFF7FCBF0F484FF00701884385460E4842
:1003800080470E48016841F470010160BFF34F8F50
:10039000BFF36F8FFFF734BF09480A490A4A884202
:1003A00007D0521A05D0037801300B700131013AA1
:1003B000F9D17047000004205910000088ED00E0DA
:0C03C0009412000000000020000000204B
:1003CC0000B583B00190019B1B68184600F002F940
:1003DC000346002B04D10B494FF4F67000F072FA6F
:1003EC00019B1B681F2B02D84FF0A04306E0019B1A
:1003FC001B6803F01F02019B1A60034B184603B0E5
:10040C005DF804FB941200000003005000B585B0A9
:10041C000190084611461A4603468DF803300B46E8
:10042C008DF8023013468DF8013001AB1846FFF7FA
:10043C00C7FF03909DF803209DF802305B001A4320
:10044C009DF801309B001A439DF818301B0242EABC
:10045C0003019DF81C301B04019A1943039B02F500
:10046C00E07243F8221000BF05B05DF804FB00B544
:10047C0085B00390002301930023009300230122F5
:10048C0001210398FFF7C2FF00BF05B05DF804FB24
:10049C0000B585B003900B468DF80B309DF80B30F2
:1004AC000022019200220092002200210398FFF703
:1004BC00ADFF00BF05B05DF804FB00B585B0019041
:1004CC0001AB1846FFF77CFF0390019B012202FA57
:1004DC0003F31946039800F069F800BF05B05DF806
:1004EC0004FB00B585B0019001AB1846FFF768FF1F
:1004FC000390019B012202FA03F31946039800F0C2
:10050C005FF800BF05B05DF804FB00B585B0019045
:10051C0001AB1846FFF754FF0390039BD3F8043547
:10052C000293029BDA43019B012101FA03F31A4067
:10053C00039BC3F80825019B01229A40029B1A4099
:10054C00039BC3F80C2500BF05B05DF804FB00B598
:10055C0083B001900091009B002B03D10198FFF711
:10056C00C0FF02E00198FFF7A8FF00BF03B05DF8E1
:10057C0004FB00B585B0019001AB1846FFF720FFD6
:10058C000390039800F00AF80246019B22FA03F349
:10059C0003F00103184605B05DF804FB82B001902E
:1005AC00019BD3F81035184602B0704782B0019009
:1005BC000091019B009AC3F8082500BF02B0704758
:1005CC0082B001900091019B009AC3F80C2500BFEA
:1005DC0002B0704784B00190019B5B090293002329
:1005EC000393029B002B03D0029B012B04D007E04A
:1005FC004FF0FF33039303E04FF6FF73039300BFF9
:10060C00019B03F01F030193039A019B22FA03F34E
:10061C0003F00103002B14BF01230023DBB21846A7
:10062C0004B0704700B583B00190019B032B03D934
:10063C000749412000F046F9064A019B13441B78F8
:10064C0000211846FFF783FF00BF03B05DF804FBE1
:10065C00C4120000FC12000000B583B00190019B95
:10066C00032B03D90749472000F02CF9064A019BBC
:10067C0013441B7801211846FFF769FF00BF03B034
:10068C005DF804FBC4120000FC12000000B583B03E
:10069C000023019305E00198FFF7DEFF019B013376
:1006AC000193019B032BF6D900BF00BF03B05DF88B
:1006BC0004FB000000B583B00190019B032B03D910
:1006CC0007495F2000F0FEF8064A019B13441B7893
:1006DC001846FFF71AFF00BF03B05DF804FB00BF1C
:1006EC00C4120000FC12000000B583B0002301937B
:1006FC0009E0094A019B13441B781846FFF7B7FE23
:10070C00019B01330193019B032BF2D9FFF7BEFF31
:10071C0000BF03B05DF804FBFC12000000B585B00F
:10072C000190019B032B03D91149AC2000F0CAF8AE
:10073C00104A019B13441B781846FFF71AFF034617
:10074C00002B14BF012300238DF80F309DF80F30C0
:10075C00002B14BF01230023DBB283F00103DBB2B7
:10076C0003F00103DBB2184605B05DF804FB00BFD3
:10077C00C41200000013000000B583B000230193E5
:10078C000AE0094A019B13441B7803211846FFF722
:10079C007FFE019B01330193019B032BF1D900BF19
:1007AC0000BF03B05DF804FB0013000000B583B07C
:1007BC000190019B03F00103002B01D0FFF794FF84
:1007CC00019B03F00203002B01D0FFF7D5FF00BF04
:1007DC0003B05DF804FB000086B003900291019217
:1007EC0001238DF817309DF81730204A039B1360B6
:1007FC001E4A029B53601D4A019B9360039B44F26B
:10080C000102934212D0039B44F20202934220D184
:10081C00019B164AD360154BDB681B68134A936126
:10082C00124BDB685B68114AD36112E0019B0F4AE3
:10083C0013610E4B1B699B680C4A53610B4B1B6974
:10084C001B680A4A9361094B1B695B68074AD361B1
:10085C0000BF72B600BF00BF9DF81730DBB2002B93
:10086C00FAD162B600BF00BF06B070470800002086
:10087C0000B587B003900291019272B600BF039B42
:10088C0044F20102934207D0039B44F202029342CA
:10089C0005D1019B059303E0019B049300E000BF8D
:1008AC00074B1B6803F00103002B00D000BE019A1C
:1008BC0002990398FFF790FF00BF07B05DF804FBA7
:1008CC00F0ED00E000B585B003460091ADF80630C0
:1008DC00BDF806300293009B039302AB1A4600212D
:1008EC0044F20200FFF7C4FF00BF05B05DF804FB43
:1008FC0082B0034600918DF807309DF90730002B2C
:10090C000ADB009BDAB20C499DF907305201D2B2D6
:10091C000B4483F800230BE0009BDAB207499DF8E7
:10092C00073003F00F03043B5201D2B20B441A768A
:10093C0000BF02B0704700BF00E100E000ED00E036
:10094C0000B583B00190019B013BB3F1807F01D3D3
:10095C0001230FE0094A019B013B536007214FF033
:10096C00FF30FFF7C5FF054B00229A60034B0722AF
:10097C001A600023184603B05DF804FB10E000E099
:10098C0000B583B00190019B1B68184600F03BF842
:10099C000346002B04D10B494FF4F670FFF792FF7E
:1009AC00019B1B681F2B02D84FF0A04306E0019B54
:1009BC001B6803F01F02019B1A60034B184603B01F
:1009CC005DF804FB041300000003005000B585B073
:1009DC00019001AB1846FFF7D3FF0390039800F08A
:1009EC000AF80246019B22FA03F303F001031846AE
:1009FC0005B05DF804FB82B00190019BD3F8103573
:100A0C00184602B0704784B00190019B5B090293B9
:100A1C0000230393029B002B03D0029B012B04D0D9
:100A2C0007E04FF0FF33039303E04FF6FF7303939C
:100A3C0000BF019B03F01F030193039A019B22FA51
:100A4C0003F303F00103002B14BF01230023DBB2DB
:100A5C00184604B07047000000B583B0334B1B88B8
:100A6C0001339AB2314B1A800023019355E0304A7E
:100A7C00019B13441B781846FFF7A8FF0346D9B215
:100A8C002C4A019B13440A461A702A4A019B1344B0
:100A9C001A782949019B0B441B789A4205D1274AA5
:100AAC00019B134405221A7034E0244A019B134421
:100ABC001B78013BD9B2214A019B13440A461A7098
:100ACC001E4A019B13441B78002B23D11C4A019B0B
:100ADC00134401221A70174A019B13441B78002BF4
:100AEC0005D1184A019B134401221A7004E0154ADF
:100AFC00019B134400221A70104A019B13440522D7
:100B0C001A700C4A019B134419780B4A019B13442D
:100B1C000A461A70019B01330193019B032BA6DD3E
:100B2C0000BF00BF03B05DF804FB00BF280000202D
:100B3C003413000030000020340000202C00002072
:100B4C00380000203C00002000B585B00120FFF7E4
:100B5C002DFE4B4B1B684B4AA2FB03239B091846EB
:100B6C00FFF7EEFE484B00221A70484B00221A7019
:100B7C00454B1B78002B02D0012B3BD07FE0434B25
:100B8C001B78002B17D10023039310E0039B18460E
:100B9C00FFF790FD00BF3E4B1A883E4B1B889A42D4
:100BAC00F9D33B4B00221A80039B01330393039B25
:100BBC00032BEBDD14E0354B1B78012B0DD10023FF
:100BCC00029306E0029B1846FFF72CFD029B0133B3
:100BDC000293029B032BF5DD02E02C4B1B78022BBE
:100BEC000B20FFF79BFD0346002B45D0264B012223
:100BFC001A7041E01820FFF791FD0346002B15D029
:100C0C00224B1B780133DAB2204B1A70002301936C
:100C1C0006E0019B1846FFF705FD019B013301938C
:100C2C001A4B1B781A46019B9342F2DB1920FFF7F3
:100C3C0075FD0346002B15D0144B1B78013BDAB223
:100C4C00124B1A700023009306E0009B1846FFF726
:100C5C00E9FC009B013300930C4B1B781A46009B5C
:100C6C009342F2DB0C20FFF759FD0346002B05D015
:100C7C00054B00221A7001E000BF73E700BF71E75B
:100C8C0004000020D34D62104000002041000020E1
:100C9C002800002000000020BFF34F8F00BF064B40
:100CAC00DB6803F4E0620449044B1343CB60BFF3ED
:100CBC004F8F00BF00BFFDE700ED00E00400FA0518
:100CCC0082B0164B1B680193154B1B680093019B5C
:100CDC00082B1FD1009B052B1AD801A252F823F028
:100CEC00050D0000090D00000D0D0000110D000098
:100CFC00150D0000190D000001230CE001230AE082
:100D0C00012308E0012306E0012304E0012302E0B3
:100D1C00012300E00023184602B070473001001098
:100D2C003401001082B0164B1B680193154B1B68E5
:100D3C000093019B082B1FD1009B052B1AD801A2F5
:100D4C0052F823F0690D00006D0D0000710D0000CC
:100D5C00750D0000790D00007D0D000001230CE0E5
:100D6C0001230AE0012308E0012306E0012304E04B
:100D7C00012302E0012300E00023184602B0704773
:100D8C00300100103401001082B0164B1B68019327
:100D9C00154B1B680093019B082B1FD1009B052B47
:100DAC001AD801A252F823F0CD0D0000D10D00008D
:100DBC00D50D0000D90D0000DD0D0000E10D000087
:100DCC0001230CE000230AE0002308E0002306E0E6
:100DDC00002304E0002302E0002300E00023184677
:100DEC0002B07047300100103401001082B0164B75
:100DFC001B680193154B1B680093019B082B1FD19B
:100E0C00009B052B1AD801A252F823F0310E0000DA
:100E1C00350E0000390E00003D0E0000410E0000A2
:100E2C00450E000001230CE000230AE0002308E03B
:100E3C00002306E0002304E0002302E0002300E08E
:100E4C000023184602B07047300100103401001026
:100E5C0082B0164B1B680193154B1B680093019BCA
:100E6C00082B1FD1009B052B1AD801A252F823F096
:100E7C00950E0000990E00009D0E0000A10E0000C2
:100E8C00A50E0000A90E000001230CE000230AE0CF
:100E9C00002308E0002306E0002304E0002302E026
:100EAC00002300E00023184602B070473001001008
:100EBC003401001082B0164B1B680193154B1B6854
:100ECC000093019B082B1FD1009B052B1AD801A264
:100EDC0052F823F0F90E0000FD0E0000010F000087
:100EEC00050F0000090F00000D0F000001230CE09E
:100EFC0000230AE0002308E0002306E0002304E0BE
:100F0C00002302E0002300E00023184602B07047E3
:100F1C00300100103401001082B0164B1B68019395
:100F2C00154B1B680093019B082B1FD1009B052BB5
:100F3C001AD801A252F823F05D0F0000610F0000D7
:100F4C00650F0000690F00006D0F0000710F0000AD
:100F5C0001230CE001230AE0012308E0012306E051
:100F6C00012304E0012302E0012300E000231846E2
:100F7C0002B07047300100103401001082B0164BE3
:100F8C001B680193154B1B680093019B082B1FD109
:100F9C00009B052B1AD801A252F823F0C10F0000B8
:100FAC00C50F0000C90F0000CD0F0000D10F0000CD
:100FBC00D50F000000230CE000230AE0002308E01A
:100FCC00002306E0012304E0012302E0012300E0FA
:100FDC000023184602B07047300100103401001095
:100FEC0008B5FFF7CBFF0346002B07D04FF01023BB
:100FFC004FF08042D3F80832C2F8583500BF08BD14
:10100C0000BF044BD3F80034002BFAD000BF00BF54
:10101C00704700BF00E0014000B583B00190054A65
:10102C00019BC2F80435FFF7EBFF00BF03B05DF87E
:10103C0004FB00BF00E00140024B034A1A6000BFF2
:10104C00704700BF040000200090D00308B5FFF7E4
:10105C0037FE0346002B0ED04FF080430022C3F81E
:10106C000C214FF080430022C3F810214FF0804335
:10107C000022C3F83825FFF755FE0346002B76D027
:10108C004FF08053734AD3F80434C2F820354FF034
:10109C008053704AD3F80834C2F824354FF080538B
:1010AC006C4AD3F80C34C2F828354FF08053694A97
:1010BC00D3F81034C2F82C354FF08053654AD3F86E
:1010CC001434C2F830354FF08053624AD3F81834D8
:1010DC00C2F834354FF080535E4AD3F81C34C2F852
:1010EC0040354FF080535B4AD3F82034C2F8443576
:1010FC004FF08053574AD3F82434C2F848354FF098
:10110C008053544AD3F82834C2F84C354FF08053EE
:10111C00504AD3F82C34C2F850354FF080534D4A16
:10112C00D3F83034C2F854354FF08053494AD3F8D1
:10113C003434C2F860354FF08053464AD3F8383413
:10114C00C2F864354FF08053424AD3F83C34C2F8AD
:10115C0068354FF080533F4AD3F84034C2F86C35B1
:10116C004FF080533B4AD3F84434C2F87035FFF744
:10117C000BFE0346002B02D0374B384A1A60FFF7A0
:10118C0035FE0346002B03D0354BFB22C3F8182544
:10119C00FFF75EFE0346002B0AD0324B1B6823F090
:1011AC000F02314B1B6803F00F032E4913430B60E6
:1011BC00FFF780FE0346002B03D02C4B4FF400723C
:1011CC001A60FFF7A9FE0346002B0DD04FF08043A9
:1011DC00D3F8003403F00103002B05D04FF080430B
:1011EC006FF00102C3F80024214BD3F88830204A59
:1011FC0043F47003C2F88830BFF34F8F00BFBFF3C6
:10120C006F8F00BFFFF7ECFE4FF01023D3F80032C6
:10121C00002B05DB4FF01023D3F80432002B15DA2A
:10122C000120FFF7F9FE4FF010231222C3F8002221
:10123C00FFF7E6FE4FF010231222C3F80422FFF74B
:10124C00DFFE0020FFF7E8FEFFF726FDFFF7F4FEB8
:10125C0000BF08BD00C000408C5600404881030010
:10126C0000F00040E40E004058020010409602408E
:10127C0000ED00E0072904D90023024AC0E900313F
:08128C001060704744000020CF
:101294002E2E2F2E2E2F2E2E2F2E2E2F2E2E2F2E65
:1012A4002E2F6D6F64756C65732F6E7266782F6860
:1012B400616C2F6E72665F6770696F2E6800000044
:1012C400443A5C6E5246355F53444B5F31372E319E
:1012D4002E305F646464653536305C636F6D706FA7
:1012E4006E656E74735C626F617264735C626F616D
:1012F4007264732E630000000D0E0F100B0C18198E
:101304002E2E2F2E2E2F2E2E2F2E2E2F2E2E2F2EF4
:101314002E2F6D6F64756C65732F6E7266782F68EF
:10132400616C2F6E72665F6770696F2E68000000D3
:041334000B0C18196D
:08133800320000000090D00318
:040000030000037185
:00000001FF
