:100000000000042071030000590300005B0300009E
:100010005D0300005F0300006103000000000000BA
:10002000000000000000000000000000630300006A
:10003000650300000000000067030000C508000021
:100040006B0300006B0300006B0300006B030000F8
:100050006B0300006B0300006B0300006B030000E8
:100060006B0300006B0300006B0300006B030000D8
:100070006B0300006B0300006B0300006B030000C8
:100080006B0300006B0300006B0300006B030000B8
:100090006B0300006B0300006B0300006B030000A8
:1000A0006B0300006B0300006B0300006B03000098
:1000B0006B0300006B030000000000000000000064
:1000C0006B0300006B0300006B0300006B03000078
:1000D0006B0300006B0300006B0300006B03000068
:1000E0006B0300006B0300006B03000000000000C6
:1000F000000000006B030000000000006B03000024
:1001000000000000000000000000000000000000EF
:1001100000000000000000000000000000000000DF
:1001200000000000000000000000000000000000CF
:1001300000000000000000000000000000000000BF
:1001400000000000000000000000000000000000AF
:10015000000000000000000000000000000000009F
:10016000000000000000000000000000000000008F
:10017000000000000000000000000000000000007F
:10018000000000000000000000000000000000006F
:10019000000000000000000000000000000000005F
:1001A000000000000000000000000000000000004F
:1001B000000000000000000000000000000000003F
:1001C000000000000000000000000000000000002F
:1001D000000000000000000000000000000000001F
:1001E000000000000000000000000000000000000F
:1001F00000000000000000000000000000000000FF
:10020000344935480A1A02D0072291438D463349B2
:1002100033480A1A06D00722914381F30988022243
:1002200082F314882F483049304A00F041F83048B2
:100230003049314A00F03CF830483149314A00F049
:1002400037F831483149324A00F032F83148324902
:10025000324A00F02DF832483249334A00F028F88B
:1002600032483349334A00F023F8334833490022F7
:1002700000F029F832483349002200F024F83248CF
:100280003249091A00F066FE314A90471F4820495A
:10029000884205D00268043003B4904703BCF7E7F6
:1002A00000208646EC46002000212A4A9047FEE7BF
:1002B000884207D0521A05D0037801300B70013103
:1002C000013AF9D17047884202D002700130FAE752
:1002D000704700000000042000E00320000004201C
:1002E00000000420D80F00000000002008000020BB
:1002F000CC030000CC030000680F0000D80F000002
:100300000000002000000020680F0000680F0000BF
:10031000680F0000680F0000680F0000680F000001
:10032000680F0000680F0000D80F0000E00F000009
:1003300008000020080000200800002030000020F5
:10034000300000203000002030000020302000204D
:1003500099030000D9080000FEE7FEE7FEE7FEE78C
:10036000FEE7FEE7FEE7FEE7FEE7FEE700F002B885
:10037000FFF7FCBF0F484FF00701884385460E4842
:1003800080470E48016841F470010160BFF34F8F50
:10039000BFF36F8FFFF734BF09480A490A4A884202
:1003A00007D0521A05D0037801300B700131013AA1
:1003B000F9D17047000004202D0D000088ED00E009
:0C03C000680F000000000020000000207A
:1003CC0000B583B00190019B1B68184600F0E5F85E
:1003DC000346002B04D10B494FF4F67000F00EFAD3
:1003EC00019B1B681F2B02D84FF0A04306E0019B1A
:1003FC001B6803F01F02019B1A60034B184603B0E5
:10040C005DF804FB680F00000003005000B585B0D8
:10041C000190084611461A4603468DF803300B46E8
:10042C008DF8023013468DF8013001AB1846FFF7FA
:10043C00C7FF03909DF803209DF802305B001A4320
:10044C009DF801309B001A439DF818301B0242EABC
:10045C0003019DF81C301B04019A1943039B02F500
:10046C00E07243F8221000BF05B05DF804FB00B544
:10047C0085B00390002301930023009300230122F5
:10048C0001210398FFF7C2FF00BF05B05DF804FB24
:10049C0000B585B003900B468DF80B309DF80B30F2
:1004AC000022019200220092002200210398FFF703
:1004BC00ADFF00BF05B05DF804FB00B585B0019041
:1004CC0001AB1846FFF77CFF0390019B012202FA57
:1004DC0003F31946039800F04CF800BF05B05DF823
:1004EC0004FB00B585B0019001AB1846FFF768FF1F
:1004FC000390019B012202FA03F31946039800F0C2
:10050C0042F800BF05B05DF804FB00B585B0019062
:10051C0001AB1846FFF754FF0390039BD3F8043547
:10052C000293029BDA43019B012101FA03F31A4067
:10053C00039BC3F80825019B01229A40029B1A4099
:10054C00039BC3F80C2500BF05B05DF804FB00B598
:10055C0083B001900091009B002B03D10198FFF711
:10056C00C0FF02E00198FFF7A8FF00BF03B05DF8E1
:10057C0004FB82B001900091019B009AC3F80825FE
:10058C0000BF02B0704782B001900091019B009AAD
:10059C00C3F80C2500BF02B0704784B00190019BDA
:1005AC005B09029300230393029B002B03D0029B55
:1005BC00012B04D007E04FF0FF33039303E04FF619
:1005CC00FF73039300BF019B03F01F030193039A76
:1005DC00019B22FA03F303F00103002B14BF012348
:1005EC000023DBB2184604B07047000000B583B09E
:1005FC000190019B032B03D90749472000F0FEF81B
:10060C00064A019B13441B7801211846FFF79FFFF4
:10061C0000BF03B05DF804FB980F0000D00F000082
:10062C0000B583B00023019305E00198FFF7DEFFCE
:10063C00019B01330193019B032BF6D900BF00BF33
:10064C0003B05DF804FB000000B583B00190019B82
:10065C00032B03D907495F2000F0D0F8064A019B11
:10066C0013441B781846FFF750FF00BF03B05DF82A
:10067C0004FB00BF980F0000D00F000000B583B042
:10068C000023019309E0094A019B13441B78184687
:10069C00FFF7EDFE019B01330193019B032BF2D974
:1006AC00FFF7BEFF00BF03B05DF804FBD00F0000E6
:1006BC0000B583B0002301930AE0094A019B13445F
:1006CC001B7803211846FFF7E3FE019B01330193CE
:1006DC00019B032BF1D900BF00BF03B05DF804FBF5
:1006EC00D40F000000B583B00190019B03F001030F
:1006FC00002B01D0FFF7C2FF019B03F00203002B7C
:10070C0001D0FFF7D5FF00BF03B05DF804FB00007C
:10071C0086B003900291019201238DF817309DF859
:10072C001730204A039B13601E4A029B53601D4ADC
:10073C00019B9360039B44F20102934212D0039BF2
:10074C0044F20202934220D1019B164AD360154B0E
:10075C00DB681B68134A9361124BDB685B68114AB8
:10076C00D36112E0019B0F4A13610E4B1B699B680E
:10077C000C4A53610B4B1B691B680A4A9361094B6A
:10078C001B695B68074AD36100BF72B600BF00BF2C
:10079C009DF81730DBB2002BFAD162B600BF00BF58
:1007AC0006B070470800002000B587B00390029196
:1007BC00019272B600BF039B44F20102934207D030
:1007CC00039B44F20202934205D1019B059303E083
:1007DC00019B049300E000BF074B1B6803F001036F
:1007EC00002B00D000BE019A02990398FFF790FFEE
:1007FC0000BF07B05DF804FBF0ED00E000B585B07C
:10080C0003460091ADF80630BDF806300293009B0C
:10081C00039302AB1A46002144F20200FFF7C4FF17
:10082C0000BF05B05DF804FB82B0034600918DF863
:10083C0007309DF90730002B0ADB009BDAB20C491C
:10084C009DF907305201D2B20B4483F800230BE020
:10085C00009BDAB207499DF8073003F00F03043B05
:10086C005201D2B20B441A7600BF02B0704700BFDF
:10087C0000E100E000ED00E000B583B00190019BC9
:10088C00013BB3F1807F01D301230FE0094A019BA7
:10089C00013B536007214FF0FF30FFF7C5FF054BBD
:1008AC0000229A60034B07221A600023184603B0FB
:1008BC005DF804FB10E000E0034B1B8801339AB297
:1008CC00014B1A8000BF70472800002000B583B090
:1008DC000120FFF707FF204B1B68204AA2FB0323D4
:1008EC009B091846FFF7C8FF002301932FE0019BDB
:1008FC001846FFF7A9FE00BF194B1A88194B1B8825
:10090C009A42F9D3164B00221A80174B93F90030F8
:10091C009BB21A46920013445B009AB2114B1B888F
:10092C0013449AB20F4B1A800E4B1B88B3F57A7F87
:10093C0003D90D4BFF221A7006E00A4B1B88312B92
:10094C0002D8094B01221A70019B01330193019BC0
:10095C00032BCCDDC8E700BF04000020D34D621090
:10096C00280000200000002002000020BFF34F8F61
:10097C0000BF064BDB6803F4E0620449044B1343ED
:10098C00CB60BFF34F8F00BF00BFFDE700ED00E071
:10099C000400FA0582B0164B1B680193154B1B68BB
:1009AC000093019B082B1FD1009B052B1AD801A289
:1009BC0052F823F0D9090000DD090000E10900001C
:1009CC00E5090000E9090000ED09000001230CE035
:1009DC0001230AE0012308E0012306E0012304E0DF
:1009EC00012302E0012300E00023184602B0704707
:1009FC00300100103401001082B0164B1B680193BB
:100A0C00154B1B680093019B082B1FD1009B052BDA
:100A1C001AD801A252F823F03D0A0000410A000046
:100A2C00450A0000490A00004D0A0000510A000066
:100A3C0001230CE001230AE0012308E0012306E076
:100A4C00012304E0012302E0012300E00023184607
:100A5C0002B07047300100103401001082B0164B08
:100A6C001B680193154B1B680093019B082B1FD12E
:100A7C00009B052B1AD801A252F823F0A10A000002
:100A8C00A50A0000A90A0000AD0A0000B10A000086
:100A9C00B50A000001230CE000230AE0002308E063
:100AAC00002306E0002304E0002302E0002300E022
:100ABC000023184602B070473001001034010010BA
:100ACC0082B0164B1B680193154B1B680093019B5E
:100ADC00082B1FD1009B052B1AD801A252F823F02A
:100AEC00050B0000090B00000D0B0000110B0000A2
:100AFC00150B0000190B000001230CE000230AE089
:100B0C00002308E0002306E0002304E0002302E0B9
:100B1C00002300E00023184602B07047300100109B
:100B2C003401001082B0164B1B680193154B1B68E7
:100B3C000093019B082B1FD1009B052B1AD801A2F7
:100B4C0052F823F0690B00006D0B0000710B0000D4
:100B5C00750B0000790B00007D0B000001230CE0ED
:100B6C0000230AE0002308E0002306E0002304E051
:100B7C00002302E0002300E00023184602B0704777
:100B8C00300100103401001082B0164B1B68019329
:100B9C00154B1B680093019B082B1FD1009B052B49
:100BAC001AD801A252F823F0CD0B0000D10B000093
:100BBC00D50B0000D90B0000DD0B0000E10B000091
:100BCC0001230CE000230AE0002308E0002306E0E8
:100BDC00002304E0002302E0002300E00023184679
:100BEC0002B07047300100103401001082B0164B77
:100BFC001B680193154B1B680093019B082B1FD19D
:100C0C00009B052B1AD801A252F823F0310C0000DE
:100C1C00350C0000390C00003D0C0000410C0000AC
:100C2C00450C000001230CE001230AE0012308E03D
:100C3C00012306E0012304E0012302E0012300E08C
:100C4C000023184602B07047300100103401001028
:100C5C0082B0164B1B680193154B1B680093019BCC
:100C6C00082B1FD1009B052B1AD801A252F823F098
:100C7C00950C0000990C00009D0C0000A10C0000CC
:100C8C00A50C0000A90C000000230CE000230AE0D6
:100C9C00002308E0002306E0012304E0012302E026
:100CAC00012300E00023184602B070473001001009
:100CBC003401001008B5FFF7CBFF0346002B07D01B
:100CCC004FF010234FF08042D3F80832C2F8583559
:100CDC0000BF08BD00BF044BD3F80034002BFAD082
:100CEC0000BF00BF704700BF00E0014000B583B0FB
:100CFC000190054A019BC2F80435FFF7EBFF00BFDA
:100D0C0003B05DF804FB00BF00E00140024B034A56
:100D1C001A6000BF704700BF040000200090D00391
:100D2C0008B5FFF737FE0346002B0ED04FF080437B
:100D3C000022C3F80C214FF080430022C3F810218D
:100D4C004FF080430022C3F83825FFF755FE0346C9
:100D5C00002B76D04FF08053734AD3F80434C2F88A
:100D6C0020354FF08053704AD3F80834C2F824353C
:100D7C004FF080536C4AD3F80C34C2F828354FF03E
:100D8C008053694AD3F81034C2F82C354FF0805395
:100D9C00654AD3F81434C2F830354FF08053624AA8
:100DAC00D3F81834C2F834354FF080535E4AD3F878
:100DBC001C34C2F840354FF080535B4AD3F82034D2
:100DCC00C2F844354FF08053574AD3F82434C2F854
:100DDC0048354FF08053544AD3F82834C2F84C3578
:100DEC004FF08053504AD3F82C34C2F850354FF0A2
:100DFC0080534D4AD3F83034C2F854354FF08053F9
:100E0C00494AD3F83434C2F860354FF08053464A1F
:100E1C00D3F83834C2F864354FF08053424AD3F8D3
:100E2C003C34C2F868354FF080533F4AD3F8403415
:100E3C00C2F86C354FF080533B4AD3F84434C2F8B7
:100E4C007035FFF70BFE0346002B02D0374B384AA8
:100E5C001A60FFF735FE0346002B03D0354BFB22FF
:100E6C00C3F81825FFF75EFE0346002B0AD0324B61
:100E7C001B6823F00F02314B1B6803F00F032E4944
:100E8C0013430B60FFF780FE0346002B03D02C4B63
:100E9C004FF400721A60FFF7A9FE0346002B0DD029
:100EAC004FF08043D3F8003403F00103002B05D03E
:100EBC004FF080436FF00102C3F80024214BD3F8AC
:100ECC008830204A43F47003C2F88830BFF34F8F48
:100EDC0000BFBFF36F8F00BFFFF7ECFE4FF0102386
:100EEC00D3F80032002B05DB4FF01023D3F804327B
:100EFC00002B15DA0120FFF7F9FE4FF01023122218
:100F0C00C3F80022FFF7E6FE4FF010231222C3F8BD
:100F1C000422FFF7DFFE0020FFF7E8FEFFF726FDB7
:100F2C00FFF7F4FE00BF08BD00C000408C56004027
:100F3C004881030000F00040E40E0040580200100D
:100F4C004096024000ED00E0072904D90023024A34
:0C0F5C00C0E90031106070472C0000203C
:100F68002E2E2F2E2E2F2E2E2F2E2E2F2E2E2F2E94
:100F78002E2F6D6F64756C65732F6E7266782F688F
:100F8800616C2F6E72665F6770696F2E6800000073
:100F9800443A5C6E5246355F53444B5F31372E31CD
:100FA8002E305F646464653536305C636F6D706FD6
:100FB8006E656E74735C626F617264735C626F619C
:100FC8007264732E630000000D0E0F100B0C1819BD
:080FD800320001000090D0037B
:040000030000037185
:00000001FF
