:100000000000042071030000590300005B0300009E
:100010005D0300005F0300006103000000000000BA
:10002000000000000000000000000000630300006A
:10003000650300000000000067030000855A00000F
:100040006B0300006B030000392F0000593F0000D4
:100050006B0300006B0300006B0300006B030000E8
:100060006B0300006B0300006B0300006B030000D8
:100070006B0300006B0300006B0300006B030000C8
:100080006B0300006B0300006B0300006B030000B8
:100090006B0300006B0300006B0300006B030000A8
:1000A0006B0300006B0300006B0300006B03000098
:1000B0006B0300006B030000000000000000000064
:1000C0006B0300006B0300006B0300006B03000078
:1000D0006B0300006B0300006B0300006B03000068
:1000E0006B0300006B0300006B03000000000000C6
:1000F000000000006B030000000000006B03000024
:1001000000000000000000000000000000000000EF
:1001100000000000000000000000000000000000DF
:1001200000000000000000000000000000000000CF
:1001300000000000000000000000000000000000BF
:1001400000000000000000000000000000000000AF
:10015000000000000000000000000000000000009F
:10016000000000000000000000000000000000008F
:10017000000000000000000000000000000000007F
:10018000000000000000000000000000000000006F
:10019000000000000000000000000000000000005F
:1001A000000000000000000000000000000000004F
:1001B000000000000000000000000000000000003F
:1001C000000000000000000000000000000000002F
:1001D000000000000000000000000000000000001F
:1001E000000000000000000000000000000000000F
:1001F00000000000000000000000000000000000FF
:10020000344935480A1A02D0072291438D463349B2
:1002100033480A1A06D00722914381F30988022243
:1002200082F314882F483049304A00F041F83048B2
:100230003049314A00F03CF830483149314A00F049
:1002400037F831483149324A00F032F83148324902
:10025000324A00F02DF832483249334A00F028F88B
:1002600032483349334A00F023F8334833490022F7
:1002700000F029F832483349002200F024F83248CF
:100280003249091A06F018FE314A90471F482049A2
:10029000884205D00268043003B4904703BCF7E7F6
:1002A00000208646EC46002000212A4A9047FEE7BF
:1002B000884207D0521A05D0037801300B70013103
:1002C000013AF9D17047884202D002700130FAE752
:1002D000704700000000042000E00320000004201C
:1002E000000004200C8000000000002074020020A8
:1002F000CC030000CC030000CC6E00000C8000009A
:100300000000002000000020186F0000186F00009F
:10031000186F0000186F0000186F0000186F0000C1
:10032000186F0000186F0000098000008082000034
:100330007402002074020020740200203C09002096
:100340003C0900203C0900203C0900203C290020F9
:1003500099030000755B0000FEE7FEE7FEE7FEE79D
:10036000FEE7FEE7FEE7FEE7FEE7FEE700F002B885
:10037000FFF7FCBF0F484FF00701884385460E4842
:1003800080470E48016841F470010160BFF34F8F50
:10039000BFF36F8FFFF734BF09480A490A4A884202
:1003A00007D0521A05D0037801300B700131013AA1
:1003B000F9D1704700000420FD6A000088ED00E0DC
:0C03C000186F000000000020000000206A
:1003CC0000B5A1B00590049103920293049802F039
:1003DC00F7F9039B1593029B1693002317930023A5
:1003EC008DF8603000231993229B1A9300231F93DE
:1003FC000FA91F9B0822049802F0BCFA08231F9334
:10040C00119B1293BDF84030ADF84C30BDF8423022
:10041C00ADF84E3000238DF851309DF83C3003F090
:10042C000303DBB2012B26D10F9BC3F395231C9343
:10043C009DF83C30C3F3C203DBB28DF85030BDF8ED
:10044C003C30C3F38313DBB21B931B9B9A0009A9AB
:10045C001F9B049802F08EFA1B9B9B001F9A13445F
:10046C001F9312AA09A915AB009313461B9A1C984B
:10047C0000F0D2FF2FE09DF83C3003F00303DBB219
:10048C00022B28D1BDF83E30C3F389139BB21E93C7
:10049C009DF83C30C3F3C203DBB28DF850301E9B89
:1004AC00082B28BF08231D9307A91F9B1D9A04988E
:1004BC0002F060FA1F9A1D9B13441F931E9A1D9BFA
:1004CC00D31A1E9315AB12AA07A81D9901F046F872
:1004DC001E9B002BE3D1049802F081F900BF21B0E0
:1004EC005DF804FB00B583B00190019B1B781A46A4
:1004FC000C4B9B5C002B05D0019B0433184604F07D
:10050C008FFF0BE0019B1B781A46064B9B5C002B64
:10051C0004D1019B0C33184604F00AF900BF03B058
:10052C005DF804FB8408002000B587B003900291AD
:10053C0013468DF8073000230593039B1B781A464E
:10054C00114B9B5C002B09D0039B04339DF80720B7
:10055C000299184604F0C6FF05900FE0039B1B7828
:10056C001A46094B9B5C002B08D1039B0C339DF85E
:10057C0007200299184604F053F90590059B18467C
:10058C0007B05DF804FB00BF8408002082B0019026
:10059C000091034B01221A7000BF02B0704700BFDC
:1005AC00B402002030B58DB003468DF807301A4BDD
:1005BC0002AC1D460FCD0FC495E80F0084E80F0068
:1005CC00062302934FF0FF3303934FF0FF33049352
:1005DC004FF0FF3305934FF0EB7308939DF8073002
:1005EC00002B01D00D4A00E0002202AB19460C484A
:1005FC0002F02EFC0B900B9B0A930A9B002B04D051
:10060C00084A43210A9801F0D9F9074A9DF80730A6
:10061C00137000BF0DB030BD686F0000990500006D
:10062C0000000020186F0000B502002000B583B058
:10063C0001238DF807309DF807301846FFF7B2FFFD
:10064C0000BF03B05DF804FB00B589B003900291C4
:10065C000192019B8DF81F30124B00221A709DF8ED
:10066C001F301A4602991048FFF75EFF0690069B52
:10067C000593059B002B04D00C4A5321059801F0DF
:10068C009DF900BF0A4B1B78002B07D0054B1B783C
:10069C00DBB283F00103DBB2002BF3D100BF09B056
:1006AC005DF804FBB402002000000020186F00006D
:1006BC00B502002000B585B003900291054B009364
:1006CC004023054A02990398FFF77AFE00BF05B054
:1006DC005DF804FB550600007402002082B0019006
:1006EC0000BF02B07047000000B583B00190054810
:1006FC00FFF7F8FE0020FFF755FF00BF03B05DF8D1
:10070C0004FB00BF0000002082B00190019BDB685D
:10071C0001225A7100BF02B07047000000B583B0CF
:10072C004FF0FF330193FFF781FF0421084800F0DD
:10073C008FFD0190019B002B03DA0649482001F044
:10074C0030FA0348FFF7E0FF00BF03B05DF804FB8D
:10075C00F46E0000A86F000000B583B0019000910A
:10076C00019B1B681B6800990198984700BF03B058
:10077C005DF804FB00B583B00190019B1B685B68BE
:10078C000198984700BF03B05DF804FB00B583B037
:10079C000190019B1B689B680198984700BF03B0B0
:1007AC005DF804FB82B001900B468DF80330019B81
:1007BC00DB689DF803201A7100BF02B0704782B04D
:1007CC000190019BDB681B79184602B0704782B020
:1007DC000190019BDB6801225A7100BF02B0704787
:1007EC0082B00190019BDB685B79184602B07047C0
:1007FC0000B585B0019000910C4B00221A700C488A
:10080C0001F042FF0390039B002B01D0039B08E0F7
:10081C00084802F0CFF8084A084BD31ADB080293B9
:10082C000023184605B05DF804FB00BF200400202F
:10083C00046F0000FC6F0000F46E0000CC6E000032
:10084C00024A034BD31ADB0818467047F46E0000BB
:10085C00CC6E000000B587B001900B468DF80330CC
:10086C009DF80330002B1FD0FFF7EAFF0490002304
:10087C00059313E0059B9B000E4A13440393039BC3
:10088C001B881A46019B1B689A4204D1019B059A4E
:10089C001A60002309E0059B01330593059A049B1C
:1008AC009A42E7D3052300E00023184607B05DF811
:1008BC0004FB00BF0000002000B585B001900B4682
:1008CC008DF803309DF8032001AB11461846FFF755
:1008DC00C1FF0346002B07D1019BDB00054A1344E3
:1008EC000393039B1B6800E00023184605B05DF8DA
:1008FC0004FB00BFCC6E000084B001900B468DF859
:10090C000330019BDB00174A134402939DF803301C
:10091C00013B032B1CD801A252F823F0390900002B
:10092C0041090000490900005309000002238DF819
:10093C000F3011E004238DF80F300DE0029B1B7972
:10094C008DF80F3008E0029B5B798DF80F3003E0D7
:10095C0000238DF80F3000BF9DF80F30184604B0FF
:10096C00704700BFCC6E000084B001900091002352
:10097C008DF80F30019B1B7803F00403DBB2002BC6
:10098C0024D0019B1B78C3F30103DBB2012B02D0F3
:10099C00022B0CD017E0009B1B68019A1288C2F343
:1009AC008312D2B213449A1C009B1A600BE0009B7A
:1009BC001B68019A5288C2F3891292B213449A1C92
:1009CC00009B1A6000BF01238DF80F309DF80F308B
:1009DC00184604B07047000000B58BB00023ADF88A
:1009EC0026303E4801F06AF93D4801F067F93D4B6D
:1009FC009B6804933C4B1B680693049A069B13401C
:100A0C0002339B00374A13440433089304AB194652
:100A1C000898FFF7A9FF0346002B09D0049A069B00
:100A2C00134002339B002F4A134404330893EDE721
:100A3C0000BF0023079311E0049B5A1C0492069AF2
:100A4C001340079A920001A90A44264902339B00DD
:100A5C000B445B681360079B01330793079B012BC7
:100A6C00EAD99DF80430C3F30103DBB2012B10D09B
:100A7C00022B1CD1BDF80A30ADF82630BDF806307B
:100A8C00C3F389139BB203339A08049B1344049356
:100A9C0013E0BDF80A30ADF82630BDF80430C3F3CE
:100AAC008313DBB21A46049B1344049305E00F49ED
:100ABC004FF4C27001F075F800BF094801F00AF953
:100ACC000590059B002B02D0049B064A9360BDF851
:100ADC00263018460BB05DF804FB00BF3808002028
:100AEC0034080020200400201C0000200C700000A2
:100AFC0000B585B00021074801F069F80390039B0D
:100B0C000293029B83F310030193019B184605B0DB
:100B1C005DF804FB3C08002000B589B003900291FD
:100B2C0001920093039B1B0C0793FFF7E1FF0690C8
:100B3C00FFF786FE0246079B934204D3214940F2FD
:100B4C00A91001F02EF8069B1904009B5A1C0A9B55
:100B5C001340079A0A431C4902339B000B445A600A
:100B6C00009A0A9B134002339B00174A1344043328
:100B7C000593039B03F00703D9B2059A137861F32D
:100B8C00C5031370019B03F00F03D9B2059A1388A8
:100B9C0061F389131380029BC3F31501059A136843
:100BAC0061F39F231360059A1378012161F301030C
:100BBC001370059A13786FF38203137000BF09B09A
:100BCC005DF804FB0C7000002004002000BF70478F
:100BDC0000B58BB00390029113468DF80730039B40
:100BEC000233089301238DF81F30002000F092FF90
:100BFC003E4B5A68029B1A603D4B1A683B4B9968F6
:100C0C003A4B5B68CB1A13440133099314E001216E
:100C1C00384801F023F8FFF7DFFE059005993548B9
:100C2C0001F01CF8324B1A68304B99682F4B5B68FB
:100C3C00CB1A134401330993089A099B9A42E6D8BC
:100C4C009DF81F30002B48D0002304939DF80730EB
:100C5C00002B17D09DF81030012262F301038DF8A0
:100C6C0010309DF8103043F004038DF81030039BC6
:100C7C0003F00F03DAB2BDF8103062F38913ADF84C
:100C8C00103016E09DF81030022262F301038DF84B
:100C9C0010309DF8103043F004038DF81030039B96
:100CAC00C3F309039AB2BDF8123062F38F13ADF897
:100CBC0012300E4B5A680E4B1B68134002339B00CC
:100CCC000A4A134404330693049A069B1A60074B92
:100CDC005A68089B1344054A5360002000F02EFF0D
:100CEC009DF81F3018460BB05DF804FB2004002063
:100CFC001C0000203C08002000B58BB0059004912E
:100D0C0003920293204B1B68079306AB01221946F2
:100D1C000298FFF75DFF0346002B24D0069B02339D
:100D2C0009930023089311E0089B9B00039A1A4433
:100D3C00099B591C099107990B40126813490233FE
:100D4C009B000B445A60089B01330893089A029B42
:100D5C009A42E9D3069A079B00931346029A049988
:100D6C000598FFF7D9FE094B1B78002B05D000BF67
:100D7C0000F06AF80346002BFAD1FFF727FF00BFFB
:100D8C000BB05DF804FB00BF1C0000202004002009
:100D9C0000B583B0019000910023002200990198C6
:100DAC00FFF7AAFF00BF03B05DF804FB00B587B0E6
:100DBC00039002910192019B059305AA01230299CC
:100DCC000398FFF799FF00BF07B05DF804FB00B56F
:100DDC0087B00390029101920093019B0493009BB6
:100DEC00059304AA022302990398FFF785FF00BF1D
:100DFC0007B05DF804FB00B58BB003900291019233
:100E0C000093019B0593009B06930C9B07930D9BF2
:100E1C0008930E9B099305AA052302990398FFF7E3
:100E2C006BFF00BF0BB05DF804FB0000054B9A682C
:100E3C00044B5B689A420CBF01230023DBB21846BB
:100E4C00704700BF2004002000B599B0FFF7EEFFFB
:100E5C000346002B01D00023B9E19B4B0022C3F8C1
:100E6C001824BFF34F8F00BF974B9B680493974B8D
:100E7C001B681093049A109B134002339B00924AF8
:100E8C001344043311930023179300231693002368
:100E9C000F9304AB19461198FFF766FD0346002B20
:100EAC0019D0894BD3F81834002B14D1864B5A68BF
:100EBC00049B9A4205D8844B5B68834A9360002359
:100ECC0085E1049A109B134002339B007E4A134425
:100EDC0004331193DDE70023159311E0049B5A1C96
:100EEC000492109A1340159A920001A90A4476496B
:100EFC0002339B000B445B681360159B0133159305
:100F0C00159B012BEAD99DF8043003F00303DBB2E7
:100F1C00022B40F09C80BDF80630C3F389139BB2C2
:100F2C000D93BDF80630C3F389139BB2502B28BF29
:100F3C0050239BB20C930C9BC3F309039AB2BDF8DC
:100F4C00063062F38F13ADF806300C9B08330B930D
:100F5C009DF80430C3F3C203DBB20F930B995C48CA
:100F6C0001F09DFB1790179B002B00F0D380179876
:100F7C0001F026FC01A9169B0822179801F0DCFC55
:100F8C00169B08331693049BDA43109B13400133D2
:100F9C009B000A930C9A0A9B9A4242D90A9B002BFB
:100FAC0008D0049A109B134002339B00464A13440A
:100FBC00043300E0474B08930A9B002B02D00A9B9A
:100FCC00DBB201E00C9BDBB28DF81F300A9B002BCF
:100FDC0001D0404B00E0002306930A9B002B06D067
:100FEC000C9BDAB20A9BDBB2D31ADBB200E0002313
:100FFC008DF817309DF81F20169B0899179801F053
:10100C009BFC9DF81F30169A13441693069B002BDD
:10101C0016D09DF81720169B0699179801F08CFC9A
:10102C000EE0049A109B134002339B00264A134493
:10103C0004330993169B0C9A0999179801F07CFCC0
:10104C000D9B03339A08049B1344049362E09DF8B0
:10105C00043003F00303DBB2012B5BD1BDF8043089
:10106C00C3F38313DBB2062B28BF0623DAB2BDF819
:10107C00043062F38913ADF80430BDF80430C3F3C7
:10108C008313DBB202330E939DF80430C3F3C20317
:10109C00DBB20F930E9B9B0019460D4801F0FFFA33
:1010AC001790179B002B35D0179801F089FB01A9DD
:1010BC00169B0822179801F03FFC169B08331693D9
:1010CC00002315931DE000BF200400201C0000200D
:1010DC00046F00002C040020049B5A1C0492109AEC
:1010EC00134002339B003C4A1344191D169B0422E7
:1010FC00179801F021FC169B04331693159B0133B2
:10110C001593BDF80430C3F38313DBB21A46159B59
:10111C009342E1D3179B002B39D02F4BD3F81034CB
:10112C0014932D4BD3F81834002B1BD0179801F0C7
:10113C0056FB46E000238DF84F301498FFF750FB18
:10114C000346002B02D001238DF84F309DF84F3011
:10115C00002B03D017991498FFF7FEFA149BDB6849
:10116C001B681493149B002BE4D1179801F037FBE8
:10117C00002000F0CFFC184BD3F81834002B02D110
:10118C00049B154A9360002000F0D8FC19E0124B28
:10119C00D3F81034129306E01298FFF7F7FA129B6B
:1011AC00DB681B681293129B002BF5D10B4A0C4B7E
:1011BC00D31ADB081B0443F002030A491846FFF755
:1011CC00E7FDFFF733FE034683F00103DBB218465D
:1011DC0019B05DF804FB00BF20040020EC6E000089
:1011EC00CC6E00005870000000B585B0002303934E
:1011FC0023E0164BD3F81034029301238DF80730FB
:10120C000FE00298FFF7DBFA03461A46039B934262
:10121C0003D100238DF8073006E0029BDB681B68C6
:10122C000293029B002BECD19DF80730002B01D0D0
:10123C00039B07E0039B01330393039B092BD8DD2E
:10124C004FF0FF33184605B05DF804FB2004002076
:10125C0000B585B001900B468DF80330FFF7C4FF45
:10126C000390039BB3F1FF3F01D1039B22E0039B4F
:10127C00DBB219460198FFF795FA104BD3F81034EE
:10128C00002B08D10D4A019BC2F81034019BDB687E
:10129C0000221A600DE0094BD3F81034DA68019B78
:1012AC00DB6812681A60054BD3F81034DB68019ABE
:1012BC001A60039B184605B05DF804FB200400205F
:1012CC0000B583B00C4BD3F8103401930A4B0122B8
:1012DC001A7009E00198FFF77AFA0198FFF74AFAB9
:1012EC00019BDB681B680193019B002BF2D100BFB3
:1012FC0000BF03B05DF804FB2004002082B0019015
:10130C00009100BF02B0704710B584B003900291F9
:10131C00039BDB88002B0AD0039BDB881A461F4BF0
:10132C00009313461E4A1F49029800F001FE039BCE
:10133C001B7A052B2ED0039B5B7A002B12D0039BC0
:10134C009B881A46039B1B7A19461046FFF7D4FA62
:10135C0003461A46144B53F822301A461349029886
:10136C0000F0E6FD039B1B6819460298FFF7C6FFC9
:10137C00039B1B7A1A460E4B53F82240039B9B8807
:10138C0000211846FFF798FA0346224609490298AD
:10139C0000F0CEFD00BF04B010BD00BF8C7000008B
:1013AC009C700000D470000034000020EC70000031
:1013BC0020000020F070000000B585B00390029171
:1013CC0013468DF80730039B1B7A052B0FD0039B1C
:1013DC005B7A002B06D00D4B1B681A460C49029801
:1013EC0000F0A6FD0B49029800F0A2FD07E09DF865
:1013FC000730002B03D00749029800F099FD0298A2
:10140C0000F074FD00BF05B05DF804FB3400002053
:10141C00EC700000FC70000030B58BB007900691AA
:10142C00059204930E9B1B7B8DF827300E9B00229C
:10143C001A730E990498FFF767FF059B062B7FD84C
:10144C0001A252F823F000BF711400007B140000BD
:10145C008B1400009F140000BD140000E514000064
:10146C001515000007990E9800F062FD69E0069BC7
:10147C001B681A4607990E9800F05AFD61E0069B0E
:10148C001A68069B04331B6807990E9800F050FDF0
:10149C0057E0069B1A68069B04331968069B0833B1
:1014AC001B6800930B4607990E9800F041FD48E02D
:1014BC00069B1968069B04331868069B08331B6847
:1014CC00069A0C3212680192009303460A46079959
:1014DC000E9800F02DFD34E0069B1868069B043333
:1014EC001C68069B08331B68069A0C321268069916
:1014FC001031096802910192009323460246079924
:10150C000E9800F015FD1CE0069B1C68069B04332E
:10151C001D68069B08331B68069A0C3212680699E4
:10152C0010310968069814300068039002910192FA
:10153C0000932B46224607990E9800F0F9FC00E028
:10154C0000BF00220E990498FFF736FF0E9B9DF802
:10155C0027201A7300BF0BB030BD00BF00B587B099
:10156C000390029101920093029B082B60D8009B80
:10157C001B7B8DF81330009B00221A730099019885
:10158C00FFF7C2FE0023059314E0059A029B9A42D2
:10159C0009D2039A059B13441B781A4626490098D6
:1015AC0000F0C6FC03E02549009800F0C1FC059B47
:1015BC0001330593059B072BE7D92149009800F0CF
:1015CC00B7FC0023059326E0059A029B9A421BD296
:1015DC00039A059B13441B788DF812309DF812303A
:1015EC007E2B0AD89DF81230184605F0C2FB034634
:1015FC00002B02D09DF8123000E02E231A46114920
:10160C00009800F095FC03E00F49009800F090FC66
:10161C00059B01330593059B072BD5D90122009916
:10162C000198FFF7C9FE009B9DF813201A7300E088
:10163C0000BF07B05DF804FB0071000008710000EA
:10164C000C710000107100001471000000B583B023
:10165C000190019B1B68184600F0C3F80346002B51
:10166C0004D10B494FF4F67000F09BFA019B1B68F8
:10167C001F2B02D84FF0A04306E0019B1B6803F020
:10168C001F02019B1A60034B184603B05DF804FB64
:10169C00187100000003005000B585B00190084699
:1016AC0011461A4603468DF803300B468DF802306E
:1016BC0013468DF8013001AB1846FFF7C7FF0390B6
:1016CC009DF803209DF802305B001A439DF8013011
:1016DC009B001A439DF818301B0242EA03019DF847
:1016EC001C301B04019A1943039B02F5E07243F86A
:1016FC00221000BF05B05DF804FB00B585B0039067
:10170C00002301930023009300230122012103985D
:10171C00FFF7C2FF00BF05B05DF804FB00B585B054
:10172C0003900B468DF80B309DF80B300022019284
:10173C0000220092002200210398FFF7ADFF00BFAA
:10174C0005B05DF804FB00B585B0019001AB1846FF
:10175C00FFF77CFF0390019B012202FA03F3194669
:10176C00039800F02AF800BF05B05DF804FB00B543
:10177C0085B0019001AB1846FFF768FF0390019B01
:10178C00012202FA03F31946039800F020F800BF77
:10179C0005B05DF804FB00B583B001900091009B8F
:1017AC00002B03D10198FFF7E2FF02E00198FFF74D
:1017BC00CAFF00BF03B05DF804FB82B0019000913A
:1017CC00019B009AC3F8082500BF02B0704782B095
:1017DC0001900091019B009AC3F80C2500BF02B048
:1017EC00704784B00190019B5B0902930023039323
:1017FC00029B002B03D0029B012B04D007E04FF07F
:10180C00FF33039303E04FF6FF73039300BF019B79
:10181C0003F01F030193039A019B22FA03F303F0D5
:10182C000103002B14BF01230023DBB2184604B0C4
:10183C007047000000B583B00190019B032B03D9C6
:10184C000749472000F0ADF9064A019B13441B7869
:10185C0001211846FFF79FFF00BF03B05DF804FBA2
:10186C00487100008071000000B583B00023019323
:10187C0005E00198FFF7DEFF019B01330193019B0B
:10188C00032BF6D900BF00BF03B05DF804FB0000CA
:10189C0000B583B00023019309E0094A019B13446E
:1018AC001B781846FFF729FF019B01330193019B1D
:1018BC00032BF2D9FFF7D8FF00BF03B05DF804FB90
:1018CC008071000000B583B0002301930AE0094A3F
:1018DC00019B13441B7803211846FFF71FFF019B44
:1018EC0001330193019B032BF1D900BF00BF03B05F
:1018FC005DF804FB8471000000B583B00190019B7E
:10190C0003F00103002B01D0FFF7C2FF019B03F092
:10191C000203002B01D0FFF7D5FF00BF03B05DF829
:10192C0004FB000086B003900291019201238DF814
:10193C0017309DF81730204A039B13601E4A029BF8
:10194C0053601D4A019B9360039B44F20102934236
:10195C0012D0039B44F20202934220D1019B164AFF
:10196C00D360154BDB681B68134A9361124BDB6821
:10197C005B68114AD36112E0019B0F4A13610E4B55
:10198C001B699B680C4A53610B4B1B691B680A4A09
:10199C009361094B1B695B68074AD36100BF72B640
:1019AC0000BF00BF9DF81730DBB2002BFAD162B636
:1019BC0000BF00BF06B070474008002000B583B0E0
:1019CC0002900091019244F2010071466A4600F0C7
:1019DC0003F803B000BD00BF30B58BB00790069183
:1019EC00059272B600BFFFF76BFC00BFFFF72CFA35
:1019FC000346002BFAD1079B44F20102934216D006
:101A0C00079B44F2020293423ED1059B09932C4A58
:101A1C002C4BD31ADB081B0443F00100099B5B68B9
:101A2C001A46099B1B682849FFF7D1F939E0059B39
:101A3C000893234A234BD31ADB081B0443F00104FD
:101A4C00089B9D68089B9B68184600F0D1FF0346D5
:101A5C001846089B5B681946089B1B68069A0292FD
:101A6C000193009103462A4618492046FFF7C3F913
:101A7C00134A144BD31ADB081B0443F0010314491B
:101A8C001846FFF785F90CE00D4A0E4BD31ADB080C
:101A9C001B0443F00103069A0E491846FFF786F91A
:101AAC0000BF0D4B1B6803F00103002B00D000BEE0
:101ABC00059A06990798FFF735FF00BF0BB030BDAC
:101ACC00EC6E0000CC6E000088710000A471000068
:101ADC00CC710000E0710000F0ED00E072B600BFC8
:101AEC00034B1B680133024A136000BF704700BFF1
:101AFC0060080020064B1B68013B054A1360044B31
:101B0C001B68002B01D162B600BF00BF704700BF3D
:101B1C006008002000B583B0019000F025F8034662
:101B2C00012B03D00449432000F03BF8FFF7D6FF0C
:101B3C0000BF03B05DF804FBF871000000B583B082
:101B4C0003468DF8073000F00FF80346012B03D045
:101B5C000449512000F025F8FFF7CCFF00BF03B07B
:101B6C005DF804FBF871000084B0EFF3058301937A
:101B7C00019BC3F308030393039B002B0DD1EFF3DD
:101B8C0014830093009B0293029B03F00103002B30
:101B9C000CBF01230023DBB200E00123184604B084
:101BAC00704700B585B003460091ADF80630BDF81E
:101BBC0006300293009B039302AB1A46002144F2B9
:101BCC000200FFF709FF00BF05B05DF804FB10B47D
:101BDC0087B001900091019B009A53E8004F10468A
:101BEC0043E8000191F0000FF7D1059404900391A4
:101BFC00059B184607B05DF8044B704710B487B0CE
:101C0C0001900091019B009A53E8004F44EA0200B6
:101C1C0043E8000191F0000FF6D105940490039174
:101C2C00049B184607B05DF8044B704710B487B09E
:101C3C0001900091019B009A53E8004F04EA0200C6
:101C4C0043E8000191F0000FF6D105940490039144
:101C5C00059B184607B05DF8044B704710B487B06D
:101C6C0001900091019B009A53E8004F04EB020095
:101C7C0043E8000191F0000FF6D105940490039114
:101C8C00049B184607B05DF8044B704710B487B03E
:101C9C0001900091019B009A53E8004FA4EB0200C5
:101CAC0043E8000191F0000FF6D1059404900391E4
:101CBC00049B184607B05DF8044B704700B583B021
:101CCC00019001210198FFF799FF0346184603B0D4
:101CDC005DF804FB00B583B0019000210198FFF77B
:101CEC00A5FF0346184603B05DF804FB00B583B0AE
:101CFC0001900B468DF80330019B002B03D1084952
:101D0C00E820FFF74EFF019BDA689DF8033001993C
:101D1C00098A01FB03F31344184603B05DF804FB76
:101D2C004472000000B583B001900091019B002B20
:101D3C0003D10849F520FFF734FF009B019AD268C4
:101D4C009B1A019A128AB3FBF2F3DBB2184603B06A
:101D5C005DF804FB4472000000B585B00190019B56
:101D6C00002B01D10E234CE0019B1B68002B03D1EF
:101D7C002649FF20FFF715FF019B5B68002B04D160
:101D8C0022494FF48070FFF70CFF019B9B68002BDE
:101D9C0004D11E4940F20110FFF703FF019BDB68E1
:101DAC00002B04D119494FF48170FFF7FAFE019B07
:101DBC001B8A002B04D1154940F20310FFF7F1FEEA
:101DCC00019B9A68019B5B68D31A8DF80F30019BBD
:101DDC001B68019A52681A6007E0019B1A68136825
:101DEC00591C11609DF80F201A709DF80F305A1E67
:101DFC008DF80F20002BF0D1019B1B6800221A716B
:101E0C000023184605B05DF804FB00BF44720000C7
:101E1C0000B585B00190019B002B04D11C494FF4F7
:101E2C009270FFF7BEFE002303930020FFF772FEB3
:101E3C00019B1B681A68019B5B689A421FD9019B26
:101E4C001B681A68013A1A601B681B7819460198BE
:101E5C00FFF74CFF0390019B9A68019B1B681B6862
:101E6C00D31A8DF80B30019B1B681B799DF80B2046
:101E7C009A4204D9019B1B689DF80B201A71002013
:101E8C00FFF75CFE039B184605B05DF804FB00BF32
:101E9C004472000010B584B001900091019B002B9E
:101EAC0004D1114940F24710FFF77BFE009B002B39
:101EBC0004D10D494FF4A470FFF773FE009B0393FC
:101ECC000020FFF727FE019B1B681C68621C1A6030
:101EDC0003990198FFF726FF034623700020FFF7B4
:101EEC002DFE00BF04B010BD4472000000B583B0DD
:101EFC000190019B002B03D10C493120FFF751FEBF
:101F0C00019B9B68002B0CD0019B5B69019A1069AB
:101F1C00019A1168019A92689847019B00229A6075
:101F2C0000E000BF03B05DF804FB00BF8872000046
:101F3C000EB400B584B00190019B002B03D118495D
:101F4C004220FFF72EFE019B5B69002B03D1144945
:101F5C004320FFF726FE019B1B68002B03D1104981
:101F6C004420FFF71EFE019B5B68002B03D10C493C
:101F7C004520FFF716FE059B002B0AD00023039388
:101F8C0006AB039303AB1A460599019800F0B8F918
:101F9C0000E000BF04B05DF804EB03B0704700BF75
:101FAC008872000000B583B001900B468DF80330A9
:101FBC009DF803300A2B03D10D210198FFF7F2FF96
:101FCC00019B1A68019B9B68581C019988601344FB
:101FDC009DF803201A70019B9A68019B5B689A42DA
:101FEC0002D30198FFF782FF00BF03B05DF804FB3A
:101FFC0000B587B0039002910192009300230593E2
:10200C00009B03F00103002B24D00BE0029B013357
:10201C000293059B013305939DF8133019460398E1
:10202C00FFF7C0FF029B1B788DF813309DF813301F
:10203C00002BEBD106E0019B013B0193202103987F
:10204C00FFF7B0FF019A059B9A422ED9019B002BFA
:10205C00F1D12AE0029B002B0BD0029804F0C4FEB5
:10206C00059006E0019B013B019320210398FFF7AB
:10207C0099FF019A059B9A420FD9019B002BF1D134
:10208C000BE0029B01330293059B013305939DF8F2
:10209C00133019460398FFF785FF029B1B788DF8C8
:1020AC0013309DF81330002BEBD100BF07B05DF857
:1020BC0004FB000000B589B00390029101920093DB
:1020CC00029B07930123069307E0079A019BB2FB3F
:1020DC00F3F30793069B01330693079A019B9A42ED
:1020EC00F3D2009A069B9A4201D9009B06930B9B54
:1020FC0003F00103002B22D10A9B002B1FD00B9B5A
:10210C0003F00203002B06D0009B002B03D13023DD
:10211C008DF8173002E020238DF8173008E00A9B69
:10212C00013B0A939DF8173019460398FFF73AFFC5
:10213C000A9B002B03D0069A0A9B9A42EFD30123E9
:10214C000793009B012B03D9009B013B009309E0F3
:10215C00029A079BB2FBF3F30493049A019B9A42F5
:10216C0000D205E0079B019A02FB03F30793E8E713
:10217C00029A079BB2FBF3F30493049B079A02FBAE
:10218C0003F3029AD31A0293154A049B13441B7847
:10219C0019460398FFF706FF079A019BB2FBF3F36E
:1021AC000793079B002BE3D10B9B03F00103002B40
:1021BC0011D00A9B002B0ED006E00A9B013B0A9320
:1021CC0020210398FFF7EEFE0A9B002B03D0069A02
:1021DC000A9B9A42F1D300BF09B05DF804FB00BF23
:1021EC000873000000B589B0059004910392029326
:1021FC00049B002BB8BF5B4206930123079307E0B7
:10220C00039B069A92FBF3F30693079B0133079308
:10221C00039B069A9A42F3DA029A079B9A4201D9D7
:10222C00029B07930A9B002B0AD0049B002B04DB18
:10223C000B9B03F00403002B02D00A9B013B0A9377
:10224C000B9B03F00203002B02D0029B002B16D039
:10225C000B9B03F00103002B11D10A9B002B0ED01A
:10226C0006E00A9B013B0A9320210598FFF79AFE92
:10227C000A9B002B03D0079A0A9B9A42F1D3049B2A
:10228C00002B07DA049B5B4204932D210598FFF782
:10229C0089FE08E00B9B03F00403002B03D02B21D9
:1022AC000598FFF77FFE0B9B03F00203002B19D060
:1022BC000B9B03F00103002B14D1029B002B11D1BB
:1022CC000A9B002B0ED006E00A9B013B0A9330219F
:1022DC000598FFF767FE0A9B002B03D0079A0A9B11
:1022EC009A42F1D304990B9B01930A9B0093029B96
:1022FC00039A0598FFF7DEFE00BF09B05DF804FBFA
:10230C0000B58FB0059004910392059B002B04D16E
:10231C00AD4940F25220FFF744FC059B5B69002B52
:10232C0004D1A9494FF41570FFF73BFC059B1B68C2
:10233C00002B04D1A44940F25520FFF732FC059B39
:10234C005B68002B04D1A04940F25620FFF729FC12
:10235C00049B002B00F09381049B1B788DF8373085
:10236C00049B013304939DF83730002B00F07E81E1
:10237C009DF83730252B40F06D8100230A93012303
:10238C000C93049B1B788DF837309DF83730302B2D
:10239C000DD0302B1BDC2B2B11D02D2B17D10A9BE6
:1023AC0043F001030A93049B0133049312E00A9B4C
:1023BC0043F002030A93049B013304930AE00A9B43
:1023CC0043F004030A93049B0133049302E00023BB
:1023DC000C9300BF0C9B002BD3D1002309939DF8C9
:1023EC0037302A2B0CD1039B1B68191D039A1160E3
:1023FC001B68099A13440993049B013304931AE054
:10240C00049B1B788DF837309DF837302F2B12D961
:10241C009DF83730392B0ED8049B01330493099A5D
:10242C0013469B0013445B001A469DF83730134447
:10243C00303B0993D3E700230B93049B1B788DF857
:10244C0037309DF837302E2B1DD1049B013304936C
:10245C00049B1B788DF837309DF837302F2B12D911
:10246C009DF83730392B0ED8049B013304930B9A0B
:10247C0013469B0013445B001A469DF837301344F7
:10248C00303B0B93E4E7049B1B788DF837309DF8B9
:10249C0037306C2B03D09DF83730682B07D1049B59
:1024AC0001330493049B1B788DF83730EFE79DF8CC
:1024BC003730252B00F0C480252BC0F2C680782B3A
:1024CC0000F3C380582BC0F2C080583B202B00F285
:1024DC00BC8001A252F823F0D92500005726000039
:1024EC0057260000572600005726000057260000EC
:1024FC0057260000572600005726000057260000DC
:10250C0057260000692500008B2500005726000087
:10251C005726000057260000572600008B25000088
:10252C0057260000572600005726000057260000AB
:10253C0057260000572600001926000057260000D9
:10254C0057260000FD25000057260000AF2500008F
:10255C005726000057260000D9250000039B1B6856
:10256C00191D039A11601B680C930C9B8DF81F307E
:10257C009DF81F3019460598FFF714FD66E0039B84
:10258C001B68191D039A11601B680C930A9B01931D
:10259C00099B00930B9B0A220C990598FFF722FECE
:1025AC0054E0039B1B68191D039A11601B680C9364
:1025BC000C990A9B0193099B00930B9B0A2205988B
:1025CC00FFF778FD42E000BFC4720000039B1B685C
:1025DC00191D039A11601B680C930C990A9B0193AB
:1025EC00099B00930B9B10220598FFF763FD2DE0D0
:1025FC00039B1B68191D039A11601B6808930A9BA7
:10260C00099A08990598FFF7F3FC1FE0039B1B68D8
:10261C00191D039A11601B680C9330210598FFF764
:10262C00C1FC78210598FFF7BDFC0C9900230193A0
:10263C0008230093082310220598FFF73BFD05E0C3
:10264C0025210598FFF7AEFC00E000BF049B013389
:10265C00049305E09DF8373019460598FFF7A2FC66
:10266C00049B1B78002B7FF477AE00E000BF059B2A
:10267C001B7B002B04D00598FFF738FC00E000BF53
:10268C000FB05DF804FB00BF00B583B0019001985A
:10269C00FFF762FB0346184603B05DF804FB00B578
:1026AC008BB001900091019B1B8A043B0793009A0D
:1026BC00079B1344DA1C079BB2FBF3F38DF81B301A
:1026CC000198FFF7A5FB0590059B002B01D100237A
:1026DC0038E0059B00221A71059B01225A71079B59
:1026EC009AB2059BDA80059B09939DF81B30013B40
:1026FC000493099B019A1A60002308931DE001982A
:10270C00FFF786FB0390039B002B0ED0059B5B7998
:10271C000133DAB2059B5A71099B039A1A60039B29
:10272C00019A1A60039B099304E0059800F00EF8D7
:10273C00002307E0089B01330893089A049B9A42F4
:10274C00DDD3059B18460BB05DF804FB00B58BB0D0
:10275C000190019B0793079B5B798DF81B30019BC4
:10276C0008939DF81B30013B05930023099305E06A
:10277C00089B1B680893099B01330993099A059BD5
:10278C009A42F5D3089B1B680493019B0893002382
:10279C0009930BE0089B1B68039308990498FFF7B7
:1027AC0079FB039B0893099B013309939DF81B301C
:1027BC00099A9A42EED300BF00BF0BB05DF804FB40
:1027CC0000B585B00190019B0393039B0433012159
:1027DC001846FFF743FA00BF05B05DF804FB00B5DF
:1027EC0087B00190019B0593059B0433012118468A
:1027FC00FFF74CFA0346039303AB0493049B1B783B
:10280C00002B02D10198FFF7A1FF00BF07B05DF8C4
:10281C0004FB000000B591B003900291019200936B
:10282C00039B002B03D14349B620FFF7BAF9039B56
:10283C000993039B0F93099BDB881A46099B5B79D1
:10284C0002FB03F3043B0893009A089B9A4203D3C0
:10285C003849C420FFF7A5F9099BDB880793009B37
:10286C001A1D079BB2FBF3F30E93009B0433079ADC
:10287C00B3FBF2F2079901FB02F29B1A0D93019B39
:10288C001A68009B1344089A9A4203D2089A009B38
:10289C00D31A01E0019B1B680C93019B0C9A1A60E4
:1028AC0005E00F9B1B680F930E9B013B0E930E9B39
:1028BC00002BF6D100230B93079A0D9BD31A0A9386
:1028CC000A9A0C9B934228BF13460A932AE0029A59
:1028DC000B9B134406930F9A0D9B134404330593DF
:1028EC009DF84830002B05D00A9A0599069804F0FB
:1028FC00ABFA04E00A9A0699059804F0A5FA0023AD
:10290C000D930F9B1B680F930C9A0A9BD31A0C9375
:10291C000B9A0A9B13440B93079A0C9B934228BF68
:10292C0013460A930C9B002BD1D100BF00BF11B0F2
:10293C005DF804FB1873000000B589B00590049194
:10294C0003920293039B079307AA00230093029B15
:10295C0004990598FFF75EFF079B039A9A4203D0F0
:10296C000349F620FFF71DF900BF09B05DF804FB21
:10297C001873000000B589B005900491039202937E
:10298C00039B079307AA01230093029B04990598C4
:10299C00FFF740FF079B039A9A4204D004494FF477
:1029AC008070FFF7FEF800BF09B05DF804FB00BFB4
:1029BC001873000082B00190019B9B6800229A6002
:1029CC00019B9B6800221A61019B9B6800225A6143
:1029DC00019B9B680022DA60019B9B6800225A6075
:1029EC00019B9B6800221A6000BF02B07047000078
:1029FC0000B585B00190019800F00EF80390039B90
:102A0C00002B01D0039B00E0024B184605B05DF88B
:102A1C0004FB00BF5C73000086B00190164B05935D
:102A2C00164B04931FE0049A059BD31ADB10DA0FA4
:102A3C0013445B10DB00059A13440393039B1B6840
:102A4C000293029A019B9A4202D9039B04930AE0D7
:102A5C00029A019B9A4203D2039B0833059302E02E
:102A6C00039B5B6804E0059A049B9A42DBD300232A
:102A7C00184606B0704700BF307700004878000059
:102A8C0000B585B00190019B002B0AD0074B43F099
:102A9C0001030393019B9B010293039B02989847AC
:102AAC0000E000BF05B05DF804FB00BF80780000BB
:102ABC0000B583B00190019B1B68184600F077F8B5
:102ACC000346002B04D10B494FF4F670FFF769F85D
:102ADC00019B1B681F2B02D84FF0A04306E0019B03
:102AEC001B6803F01F02019B1A60034B184603B0CE
:102AFC005DF804FB487800000003005000B585B079
:102B0C00019001AB1846FFF7D3FF0390019B012204
:102B1C0002FA03F31946039800F035F800BF05B02C
:102B2C005DF804FB00B585B0019001AB1846FFF7CA
:102B3C00BFFF0390019B012202FA03F3194603988D
:102B4C0000F02BF800BF05B05DF804FB00B585B0B4
:102B5C00019001AB1846FFF7ABFF0390039800F010
:102B6C000AF80246019B22FA03F303F0010318460C
:102B7C0005B05DF804FB82B00190019BD3F81035D1
:102B8C00184602B0704782B001900091019B009AE8
:102B9C00C3F8082500BF02B0704782B001900091C5
:102BAC00019B009AC3F80C2500BF02B0704784B09B
:102BBC000190019B5B09029300230393029B002B62
:102BCC0003D0029B012B04D007E04FF0FF3303939B
:102BDC0003E04FF6FF73039300BF019B03F01F0349
:102BEC000193039A019B22FA03F303F00103002BD8
:102BFC0014BF01230023DBB2184604B0704700B5A4
:102C0C0085B001904FF0A042019B1B6803F5E07367
:102C1C0040F20C6142F823104FF0A042019B5B681C
:102C2C0003F5E07340F20C6142F82310019B1B6822
:102C3C001846FFF763FF019B5B681846FFF75EFFC2
:102C4C004FF0A042019B1B6803F5E07340F20D614D
:102C5C0042F823104FF0A042019B5B6803F5E07330
:102C6C0040F20D6142F823100420FFF709FF002306
:102C7C0003931EE0019B5B681846FFF767FF034652
:102C8C00002B03D0039B002B17D124E0019B1B6866
:102C9C001846FFF747FF0420FFF7F2FE019B1B6865
:102CAC001846FFF72BFF0420FFF7EAFE039B0133C6
:102CBC000393039B082BDDDD00E000BF019B5B68E9
:102CCC001846FFF72FFF0420FFF7DAFE019B5B6825
:102CDC001846FFF713FF05B05DF804FB00B589B08B
:102CEC0001900091009B0793019B1B788DF80C3091
:102CFC00019B1B798DF81030019B5B798DF811309D
:102D0C00019B9B68DBB28DF81230019BDB68DBB258
:102D1C008DF81330019B1B690593019B5B6906932E
:102D2C00074A079B52F823300649079A51F822109C
:102D3C0003AA1046984700BF09B05DF804FB00BF1A
:102D4C00640800206C08002000B587B00390029145
:102D5C0001920093039B1B7805931249059B019AE2
:102D6C0041F823201049059B009A41F82320029B2F
:102D7C005B7B002B02D00298FFF741FF00230493EA
:102D8C00039B181D019B002B01D0084A00E0002278
:102D9C00059B029900F006FC0490049B184607B0B2
:102DAC005DF804FB640800206C080020E92C00008E
:102DBC0000B589B001900091009B0793019B1B7893
:102DCC008DF80C30019B5B680493019B9B68DBB214
:102DDC008DF81430019BDB680693074A079B52F869
:102DEC0023300649079A51F8221003AA1046984737
:102DFC0000BF09B05DF804FB740800207C080020BB
:102E0C0000B589B001900091009B0793019B1B7842
:102E1C008DF80C30019B5B680493019B9B68DBB2C3
:102E2C008DF81430019BDB680693074A079B52F818
:102E3C0023300649079A51F8221003AA10469847E6
:102E4C0000BF09B05DF804FB740800207C0800206A
:102E5C0030B58FB0039002910192039B1B780C93B9
:102E6C002C490C9B019A41F82320029B1A692A4990
:102E7C000C9B41F823200C9B012B07D1029B5B7F01
:102E8C00002B03D125497620FEF78BFE029B5B7F3E
:102E9C001946234A0C9B13440A461A70029B04AC35
:102EAC001D460FCD0FC495E80F0084E80F000C9B56
:102EBC00089300230D93039B1B781A46184B9B5CBD
:102ECC00002B0DD0039B181D019B002B01D0154A24
:102EDC0000E0002204AB194602F03CFA0D9014E01D
:102EEC00039B1B781A460E4B9B5C002B0DD1039B4E
:102EFC0003F10C00019B002B01D00B4A00E00022D7
:102F0C0004AB194601F0AAFB0D900D9B18460FB0AF
:102F1C0030BD00BF740800207C08002088780000B9
:102F2C0084080020BD2D00000D2E000008B5064BB6
:102F3C001B68002B03D105495120FEF732FE024BD2
:102F4C001B68984700BF08BD88080020D078000097
:102F5C0082B00190019B044A934201D1034B00E0E3
:102F6C000023184602B0704700200040880800205B
:102F7C0000B587B001900091019B002B03D118493B
:102F8C007720FEF70EFE0198FFF7E2FF0590059BF8
:102F9C00002B1ED000238DF813300020FEF7BAFD55
:102FAC00059B1B79002B03D001238DF8133005E012
:102FBC00059B009A1A60059B01221A710020FEF7EE
:102FCC00BDFD9DF81330002B03D011230393039BFD
:102FDC0002E000230393039B184607B05DF804FB43
:102FEC00D078000000B585B00190019B002B03D177
:102FFC000A499B20FEF7D5FD0198FFF7A9FF039026
:10300C00039B002B05D0039B00221A60039B00221C
:10301C001A7100BF05B05DF804FB00BFD07800004A
:10302C0082B003468DF807309DF90730002B0CDB7E
:10303C009DF8073003F01F0205499DF907305B0925
:10304C00012000FA02F241F8232000BF02B07047C1
:10305C0000E100E082B003468DF807309DF907309F
:10306C00002B0DDB9DF8073003F01F0206499DF97C
:10307C0007305B09012000FA02F2603341F823208B
:10308C0000BF02B0704700BF00E100E082B0034611
:10309C0000918DF807309DF90730002B0ADB009B5F
:1030AC00DAB20C499DF907305201D2B20B4483F8C5
:1030BC0000230BE0009BDAB207499DF8073003F0C0
:1030CC000F03043B5201D2B20B441A7600BF02B07C
:1030DC00704700BF00E100E000ED00E082B001901D
:1030EC00019B03F06043B3F1005F0CBF012300238D
:1030FC00DBB2184602B0704782B00190019B1B0BEB
:10310C005BB2184602B0704700B583B003460A465E
:10311C008DF8073013468DF806309DF80630072BD6
:10312C0003D908496B20FEF73CFD9DF806209DF95C
:10313C00073011461846FFF7A9FF00BF03B05DF832
:10314C0004FB00BF1479000000B583B003468DF872
:10315C0007309DF907301846FFF762FF00BF03B038
:10316C005DF804FB00B583B003468DF807309DF97C
:10317C0007301846FFF76EFF00BF03B05DF804FB85
:10318C0082B001900B468DF803309DF80330019A04
:10319C00134401221A6000BF02B0704784B0019042
:1031AC000B46ADF80230BDF80230019A13440022F0
:1031BC001A60BDF80230019A13441B680393039BF9
:1031CC0000BF04B0704782B001900B46ADF80230DE
:1031DC00BDF80230019A13441B68002B14BF012365
:1031EC000023DBB2184602B0704782B00190009108
:1031FC00019B009AC3F8042300BF02B0704782B051
:10320C0001900091019B009AC3F8082300BF02B003
:10321C00704782B00190019B0622C3F8002500BFC5
:10322C0002B0704782B00190019B0022C3F80025C8
:10323C0000BF02B0704784B0039002910192039BCF
:10324C00029AC3F80825039B019AC3F80C2500BF0A
:10325C0004B0704782B001900091019B009AC3F8B2
:10326C00242500BF02B0704784B00190019BD3F8B5
:10327C00C4340393019B039AC3F8C424039B1846DC
:10328C0004B0704782B001900B468DF803309DF866
:10329C000320019BC3F8882500BF02B0704784B09F
:1032AC00039002910192029A039BC3F84425039B5D
:1032BC00019AC3F8482500BF04B0704784B003904E
:1032CC0002910192029A039BC3F83425039B019A45
:1032DC00C3F8382500BF04B0704782B0019000914C
:1032EC00019B009AC3F8002200BF02B0704782B065
:1032FC000190019BD3F84C35184602B0704782B050
:10330C000190019BD3F80032184602B0704782B08E
:10331C000190019BD3F83C35184602B0704782B03F
:10332C000190019B0122C3F8502500BF02B07047E9
:10333C0082B00190019B0022C3F8502500BF02B05F
:10334C00704782B00190019B0122C3F8402500BF59
:10335C0002B0704782B00190019B0022C3F8402557
:10336C0000BF02B07047000000B583B00190019B14
:10337C001B68184600F04FF80346002B04D10B498C
:10338C004FF4F670FEF70DFC019B1B681F2B02D847
:10339C004FF0A04306E0019B1B6803F01F02019B4A
:1033AC001A60034B184603B05DF804FB4479000027
:1033BC000003005000B585B00190084611461A462E
:1033CC0003468DF803300B468DF8023013468DF80A
:1033DC00013001AB1846FFF7C7FF03909DF803209F
:1033EC009DF802305B001A439DF801309B001A4394
:1033FC009DF818301B0242EA03019DF81C301B0497
:10340C00019A1943039B02F5E07243F8221000BFA6
:10341C0005B05DF804FB84B00190019B5B0902933D
:10342C0000230393029B002B03D0029B012B04D09F
:10343C0007E04FF0FF33039303E04FF6FF73039362
:10344C0000BF019B03F01F030193039A019B22FA17
:10345C0003F303F00103002B14BF01230023DBB2A1
:10346C00184604B0704784B0019003230393019B6A
:10347C0003F00103002B02D04FF402430393019B92
:10348C0003F00203002B02D048F201230393019BAB
:10349C0003F00403002B02D048F202230393039B96
:1034AC00184604B07047000000B585B0019000913B
:1034BC0001238DF80F30009B1B7B032B56D801A2E8
:1034CC0052F823F049350000613500002135000029
:1034DC00E1340000009B9B6803F48023002B07D091
:1034EC000198FFF704FF0246009B1B699A420DD11D
:1034FC00009B9B6803F48023002B39D10198FFF7C4
:10350C00F6FE0246009B5B699A4231D000238DF88F
:10351C000F302DE00198FFF7EAFE0246009B1B6975
:10352C009A4207D10198FFF7F2FE0246009B5B69B5
:10353C009A421FD000238DF80F301BE00198FFF743
:10354C00D6FE0246009B1B699A4215D000238DF8CB
:10355C000F3011E00198FFF7DAFE0246009B1B6961
:10356C009A420BD000238DF80F3007E000BF06E025
:10357C0000BF04E000BF02E000BF00E000BF9DF808
:10358C000F3083F00103DBB2002B05D00198FFF75D
:10359C0049FE0198FFF73DFE9DF80F30184605B027
:1035AC005DF804FB00B58BB0059004910392029377
:1035BC00049B002B03D14A49E720FEF7F2FA049B47
:1035CC001A68049B5B689A4203D14549E820FEF7D0
:1035DC00E8FA059B1B791A46342302FB03F3414A94
:1035EC0013440893089B93F82D30002B03D0082329
:1035FC000793079B70E0059B1A68059B1B7919467E
:10360C00394B53F8213019461046FFF7B1FC0346ED
:10361C00002B03D011230793079B5DE0089B039AB3
:10362C001A60089B029A5A60089B00229A60089BB9
:10363C00002283F83020089B002283F82F20049B63
:10364C005A7B089B83F83220049B18680023019353
:10365C0006230093032300220021FFF7ABFE049BFB
:10366C0058680023019306230093032300220021B2
:10367C00FFF7A0FE059B1B680993049B1968049B2C
:10368C005B681A460998FFF7D6FD049B9B681946A0
:10369C000998FFF7DFFD089B1B68002B15D0059BD5
:1036AC001B681846FFF728FD03461A46049B1B7B34
:1036BC0019461046FFF728FD059B1B681846FFF7B7
:1036CC001BFD03461846FFF73FFD089B012283F8BC
:1036DC002D2000230793079B18460BB05DF804FBC5
:1036EC007C79000090080020BC79000000B585B002
:1036FC000190019B1B791A46342302FB03F30D4AFC
:10370C0013440393039B93F82D30012B04D00A49E7
:10371C0040F24F10FEF745FA019B1B681846FFF765
:10372C0078FD039B022283F82D2000BF05B05DF8C5
:10373C0004FB00BF900800207C79000000B583B02A
:10374C0001900091009B03F00103002B03D0019822
:10375C00FFF7E5FD02E00198FFF7EAFD009B03F09F
:10376C000203002B03D00198FFF7EBFD02E0019858
:10377C00FFF7F0FD00BF03B05DF804FB30B589B076
:10378C0003900291019200930023079308238DF874
:10379C001B30039B002283F82E20019BDB6818460C
:1037AC00FFF79CFC034683F00103DBB2002B03D034
:1037BC0010230793079BFDE19D490298FFF71FFD1E
:1037CC00039B93F82F30DBB2002B09D0039B9B6833
:1037DC0019460298FFF709FD11230793079BE9E1AE
:1037EC00009B03F00403002B06D1009B03F0100395
:1037FC00002B01D1012300E0002303F00103DAB216
:10380C00039B83F82F20039B019A03F10C041546AC
:10381C000FCD0FC42B682360009B1B0903F0010321
:10382C00002B14BF01230023DAB2039B83F8302052
:10383C00039B009A1A62019B5B7819460298FFF76A
:10384C0021FD4FF482710298FFF7A8FC4FF492719E
:10385C000298FFF7A3FC4FF4B0710298FFF79EFC9F
:10386C004FF4A4710298FFF799FC00990298FFF7A6
:10387C0065FF019B1B78032B00F2DE8001A252F83E
:10388C0023F000BFC33900000B3A00006B39000075
:10389C00A1380000009B03F01003002B04D06549F5
:1038AC004FF4D970FEF77DF9009B03F00803002B51
:1038BC0004D0604940F2B310FEF773F9009B03F09B
:1038CC000403002B04D05B494FF4DA70FEF769F95E
:1038DC00019B1B691846FFF701FC034683F00103AB
:1038EC00DBB2002B03D010230793079B62E14FF44C
:1038FC0080710298FFF7F1FC019BD968019B5B6812
:10390C001A460298FFF7CBFC4FF4A8710298FFF708
:10391C0045FC20210298FFF733FC08210298FFF7A1
:10392C002FFC00BF4FF4A8710298FFF74CFC034624
:10393C0083F00103DBB2002BF4D14FF4A871029891
:10394C00FFF72CFC019B1969019B9B681A46029896
:10395C00FFF7A5FC039B4FF480229A606FE0019B5C
:10396C00D968019B5B681A460298FFF798FC019B8B
:10397C001B691846FFF7B2FB034683F00103DBB269
:10398C00002B03D010230793079B13E1019B1969AC
:10399C00019B9B681A460298FFF790FC4FF48451E8
:1039AC000298FFF79AFC039B02229A60202102984E
:1039BC00FFF7E6FB43E0019BD968019B5B681A4665
:1039CC000298FFF76CFC009B03F02003002B09D03E
:1039DC004FF480710298FFF780FC039B4FF4802218
:1039EC009A6007E04FF400710298FFF776FC039B96
:1039FC0002229A6020210298FFF7C2FB1FE0019B74
:103A0C00D968019B5B681A460298FFF757FC4FF484
:103A1C0080510298FFF761FC039B02229A600023FD
:103A2C008DF81B3020210298FFF7AAFB07E000BF9E
:103A3C0002029C017C7900000723079300BF009BC6
:103A4C0003F00803002B09D1019B1B78032B05D035
:103A5C009DF81B3019460298FFF792FB039B1B68DD
:103A6C00002B1FD0009B03F00403002B02D0039B00
:103A7C0000229A60009B03F04003002B05D1039BAE
:103A8C009B6843F00202039B9A60039B9B6843F480
:103A9C000072039B9A60039B9B6819460298FFF780
:103AAC00A4FB86E000238DF81A304FF4A471029821
:103ABC00FFF789FB0346002B02D001238DF81A3047
:103ACC004FF482710298FFF77EFB0346002B07D060
:103ADC004FF482710298FFF761FB01238DF81A30C5
:103AEC004FF492710298FFF76EFB0346002B38D00F
:103AFC004FF492710298FFF751FB4FF4B07102989A
:103B0C00FFF761FB03468DF819300298FFF7F7FBBE
:103B1C0005909DF8193083F00103DBB2002B04D122
:103B2C00059B03F40073002B0AD120210298FFF7A8
:103B3C0027FB14210298FFF723FB00238DF81A3082
:103B4C009DF81930002B0CD0059B03F48073002BCF
:103B5C0007D04FF4A4710298FFF720FB00238DF8D7
:103B6C001A309DF81A3083F00103DBB2002B9CD184
:103B7C000298FFF779FB0490039B002283F82F2017
:103B8C00049B002B04D00498FFF76DFC079010E009
:103B9C00009B03F04003002B0BD103990298FFF715
:103BAC0083FC034683F00103DBB2002B01D003231B
:103BBC000793079B184609B030BD00BF00B587B00E
:103BCC00039002910192039B1B79002B09D1029B5C
:103BDC005B68B3F5803F04D2029B9B68B3F5803FD2
:103BEC0004D31B4940F26A20FDF7DBFF0023059349
:103BFC00039B1B791A46342302FB03F3154A134427
:103C0C000493049B1B68002B08D1029B1B78022B8E
:103C1C0004D10F4940F27220FDF7C3FF049B1B68CF
:103C2C00002B08D1029B1B78032B04D1084940F2CE
:103C3C007320FDF7B6FF039B1968019B029A049849
:103C4C00FFF79CFD0590059B184607B05DF804FB3B
:103C5C007C7900009008002000B58BB00390019295
:103C6C0000930B468DF80B3000238DF814309DF823
:103C7C000B308DF81530009B069300230793019BA6
:103C8C000893002309939DF83030002B01D020229B
:103C9C0000E0002205AB19460398FFF78FFF03469F
:103CAC0018460BB05DF804FB30B58BB00190009159
:103CBC00009B1B68002B04D1A24940F2C120FDF7E8
:103CCC0070FF4FF492710198FFF77DFA0346002BB9
:103CDC003ED04FF492710198FFF760FA4FF4827165
:103CEC000198FFF770FA034683F00103DBB2002B57
:103CFC002ED0009B9B6819460198FFF780FA009B19
:103D0C0002229A60009B9B6819460198FFF76DFA96
:103D1C004FF4B0710198FFF756FA034683F0010394
:103D2C00DBB2002B07D10198FFF7E9FA034603F445
:103D3C000073002B07D120210198FFF721FA1421E1
:103D4C000198FFF71DFA009B012283F82E20F6E064
:103D5C004FF482710198FFF736FA0346002B5DD0C1
:103D6C004FF482710198FFF719FA009B1B6A03F05C
:103D7C004003002B1AD1009B93F82E3083F00103E3
:103D8C00DBB2002B12D000990198FFF78DFB034694
:103D9C00002B14BF01230023DBB283F00103DBB241
:103DAC0003F00103DAB2009B83F82E20009B1B6A00
:103DBC0003F00403002B79D1009B04AC03F10C0538
:103DCC000FCD0FC42B6823604FF4B0710198FFF72F
:103DDC00E5F94FF4AE710198FFF7E0F9009B93F809
:103DEC00303083F00103DBB2002B04D1009B93F83D
:103DFC002E30002B5AD000210198FFF76EFA009B51
:103E0C0000229A6050490198FFF7F9F90198FFF7E1
:103E1C0073F903461846FFF7A5F947E04FF4A47170
:103E2C000198FFF7BBF9009B1B7B002B22D1009B59
:103E3C0004AC03F10C050FCD0FC42B682360009B61
:103E4C0093F8303083F00103DBB2002B2ED000212D
:103E5C000198FFF742FA009B00229A603A490198B8
:103E6C00FFF7CDF90198FFF747F903461846FFF71E
:103E7C0079F91BE04FF400710198FFF72EFA009BC3
:103E8C0040F202229A6030490198FFF7B8F9009B82
:103E9C009B6819460198FFF7A8F908210198FFF7CC
:103EAC006FF920210198FFF76BF948E00198FFF7B3
:103EBC00DBF90990099B03F00203002B03D00123CB
:103ECC008DF80C301DE0099B03F00403002B03D08C
:103EDC0002238DF80C3014E0099B03F00103002B36
:103EEC0003D003238DF80C300BE0009B93F82E309D
:103EFC00002B03D004238DF80C3002E000238DF846
:103F0C000C30009B93F8303083F00103DBB2002BB4
:103F1C0003D0009B002283F82F20009B1B6A03F028
:103F2C000403002B04D0009B93F82E30002B06D0FA
:103F3C00009B1B68009A516803AA104698470BB067
:103F4C0030BD00BF7C79000002029C0108B503491A
:103F5C000348FFF7A9FE00BF08BD00BF9008002072
:103F6C000030004082B003468DF807309DF90730D1
:103F7C00002B0CDB9DF8073003F01F0205499DF95F
:103F8C0007305B09012000FA02F241F8232000BF40
:103F9C0002B0704700E100E082B003468DF80730B4
:103FAC009DF90730002B13DB9DF8073003F01F023F
:103FBC0009499DF907305B09012000FA02F2203310
:103FCC0041F82320BFF34F8F00BFBFF36F8F00BFAB
:103FDC0000BF02B0704700BF00E100E082B00346B2
:103FEC0000918DF807309DF90730002B0ADB009B00
:103FFC00DAB20C499DF907305201D2B20B4483F866
:10400C0000230BE0009BDAB207499DF8073003F060
:10401C000F03043B5201D2B20B441A7600BF02B01C
:10402C00704700BF00E100E000ED00E082B00190BD
:10403C00019B1B0B5BB2184602B0704700B583B0F6
:10404C0003460A468DF8073013468DF806309DF866
:10405C000630072B03D908496B20FDF7A2FD9DF80C
:10406C0006209DF9073011461846FFF7B7FF00BF31
:10407C0003B05DF804FB00BFC079000000B583B04D
:10408C0003468DF807309DF907301846FFF76AFF95
:10409C0000BF03B05DF804FB00B583B003468DF898
:1040AC0007309DF907301846FFF776FF00BF03B0C5
:1040BC005DF804FB84B001900B46ADF80230BDF8FE
:1040CC000230019A134400221A60BDF80230019AA2
:1040DC0013441B680393039B00BF04B0704782B06A
:1040EC0001900B46ADF80230BDF80230019A134432
:1040FC001B68002B14BF01230023DBB2184602B04F
:10410C00704782B001900091019B009AC3F8042380
:10411C0000BF02B0704782B001900091019BD3F8B0
:10412C000423009B1340002B14BF01230023DBB29C
:10413C00184602B0704782B001900091019B009A22
:10414C00C3F8082300BF02B0704784B00190019BF4
:10415C00D3F880340393019B039AC3F88024039B08
:10416C00184604B0704782B00190019B0422C3F83A
:10417C00002500BF02B0704782B00190019B002265
:10418C00C3F8002500BF02B0704784B003900291C1
:10419C000192039B019AC3F81425039B029AC3F85E
:1041AC000C2500BF04B0704700B583B001904FF0F0
:1041BC00FF324FF0FF310198FFF7E7FF00BF03B06C
:1041CC005DF804FB82B00190019BD3F80C351846C6
:1041DC0002B0704782B00190019BD3F81435184699
:1041EC0002B0704782B00190019BD3F80835184695
:1041FC0002B0704782B00190019BD3F8103518467D
:10420C0002B0704784B0039002910192039B029A12
:10421C00C3F80825039B019AC3F8102500BF04B00E
:10422C00704700B583B001904FF0FF324FF0FF3173
:10423C000198FFF7E7FF00BF03B05DF804FB82B005
:10424C000190019BD3F81835DBB2184602B07047C9
:10425C0082B001900B468DF803309DF80320019B32
:10426C00C3F81C2500BF02B0704782B001900B460A
:10427C008DF803309DF80330019A134401221A6023
:10428C0000BF02B0704782B001900B468DF803302E
:10429C0013468DF802309DF803209DF8023013432D
:1042AC00DBB21A46019BC3F86C2500BF02B0704705
:1042BC0082B001900091019B009AC3F8242500BFA5
:1042CC0002B0704700B583B00190019B1B68184683
:1042DC0000F0A4F80346002B04D10B494FF4F67000
:1042EC00FDF75FFC019B1B681F2B02D84FF0A0430E
:1042FC0006E0019B1B6803F01F02019B1A60034B35
:10430C00184603B05DF804FBF07900000003005080
:10431C0000B585B00190084611461A4603468DF843
:10432C0003300B468DF8023013468DF8013001AB8B
:10433C001846FFF7C7FF03909DF803209DF8023045
:10434C005B001A439DF801309B001A439DF818300E
:10435C001B0242EA03019DF81C301B04019A19430D
:10436C00039B02F5E07243F8221000BF05B05DF824
:10437C0004FB00B585B00390002301930023009348
:10438C000023012201210398FFF7C2FF00BF05B0F3
:10439C005DF804FB00B585B003900B468DF80B302F
:1043AC009DF80B3000220192002200920022002185
:1043BC000398FFF7ADFF00BF05B05DF804FB00B537
:1043CC0085B0039000230193002300930023012266
:1043DC0000210398FFF79CFF00BF05B05DF804FBBC
:1043EC0000B585B0019001AB1846FFF76BFF039049
:1043FC00019B012202FA03F31946039800F004F81A
:10440C0000BF05B05DF804FB82B001900091019BE8
:10441C00009AC3F8082500BF02B0704784B0019021
:10442C00019B5B09029300230393029B002B03D097
:10443C00029B012B04D007E04FF0FF33039303E002
:10444C004FF6FF73039300BF019B03F01F0301930F
:10445C00039A019B22FA03F303F00103002B14BF10
:10446C0001230023DBB2184604B0704700B583B0BB
:10447C0001900091009B1B68B3F1FF3F09D0009B9A
:10448C001B681846FFF7ACFF009B1B681846FFF72C
:10449C0070FF009B5B68B3F1FF3F05D0009B5B682E
:1044AC0000211846FFF776FF019B1A68009B9B6959
:1044BC0019461046FFF7FCFE019B1868009B597DBE
:1044CC00009B1B7D1A46FFF7DEFE019B1868009BC4
:1044DC001968009B5B681A46FFF757FE009B1B7D13
:1044EC00012B22D1009B9B68B3F1FF3F05D0009BB1
:1044FC009B6800211846FFF74DFF009BDB68B3F16A
:10450C00FF3F09D0009BDB681846FFF769FF009B53
:10451C00DB681846FFF72DFF019B1868009BD968D4
:10452C00009B9B681A46FFF76DFE00BF03B05DF859
:10453C0004FB000000B583B001900B468DF80330EE
:10454C00019B1B684FF48E711846FFF7B3FD019B5E
:10455C001B684FF4A2711846FFF7ACFD019B1B685A
:10456C000E491846FFF7CDFD019B1B681846FFF757
:10457C005DFD03461A469DF8033019461046FFF7B9
:10458C005DFD019B1B681846FFF750FD034618465E
:10459C00FFF774FD00BF03B05DF804FB8000020060
:1045AC0000B583B00190019B1B6808491846FFF7C2
:1045BC00C2FD019B1B681846FFF738FD03461846E1
:1045CC00FFF76AFD00BF03B05DF804FB8402020034
:1045DC0000B587B00190019B1B681846FFF7F2FDF0
:1045EC000590019B1B681846FFF7F4FD0490019B96
:1045FC001B681846FFF7F6FD0390019B1B681846D5
:10460C00FFF7F8FD0290019B1B681846FFF7CCFDE5
:10461C00019B1B681846FFF704FE059BB3F1FF3F97
:10462C0002D00598FFF7CBFE049BB3F1FF3F02D0FD
:10463C000498FFF7C4FE029BB3F1FF3F02D002982F
:10464C00FFF7BDFE039BB3F1FF3F02D00398FFF7CA
:10465C00B6FE00BF07B05DF804FB000000B587B0E4
:10466C00039002910192029B002B03D12D49AA20A9
:10467C00FDF797FA039B1B791A462C2302FB03F3D5
:10468C00294A1344049300230593049B93F82A307E
:10469C00002B03D008230593059B3EE0039B1A686F
:1046AC00039B1B791946214B53F8213019461046B0
:1046BC00FEF75EFC0346002B03D011230593059BEC
:1046CC002BE002990398FFF7D1FE049B019A5A60E4
:1046DC00029B1A69049B1A60049B5B68002B05D033
:1046EC00029B1B7F19460398FFF724FF039B1B6853
:1046FC001846FFF738FD049B00229A61049B0022A8
:10470C00DA61049B002283F82920049B00225A6161
:10471C00049B012283F82A20059B184607B05DF8FC
:10472C0004FB00BF287A0000C4080020687A00004F
:10473C0000B585B00190019B1B791A462C2302FB16
:10474C0003F3114A13440393019B1B681846FFF7AC
:10475C0013FD039B5B68002B02D00198FFF720FF31
:10476C000198FFF735FF019B1B681846FEF73AFCD2
:10477C00039B002283F82A20039B00225A6000BF6F
:10478C0005B05DF804FB00BFC408002000B585B07F
:10479C00019000914FF48E710198FFF78BFC009BF8
:1047AC009A68009B1B6A13441B788DF80F30009B92
:1047BC001B6A5A1C009B1A629DF80F30194601980F
:1047CC00FFF746FD00BF05B05DF804FB00B585B0F2
:1047DC0001900091009B5B69039316E0009B93F89A
:1047EC002830DBB2002B01D0002314E04FF48E7183
:1047FC000198FFF774FC034683F00103DBB2002B36
:10480C00ECD100990198FFF7C1FF009B1B6A039A3A
:10481C009A42EBD80123184605B05DF804FB000062
:10482C0000B587B0039002910192039B1B791A4645
:10483C002C2302FB03F33C4A13440493049B93F88C
:10484C002A30012B04D039494FF48C70FDF7A9F9AB
:10485C00029B002B04D1354940F21910FDF7A1F948
:10486C00019B002B04D131494FF48D70FDF799F960
:10487C00039800F05DF80346002B03D01123059339
:10488C00059B4CE0049B019A5A61049B029A9A6026
:10489C00049B00221A62049B002283F82820002328
:1048AC000593039B1B684FF48E711846FFF702FCAF
:1048BC00039B1B6808211846FFF7D7FC039B1B685A
:1048CC0004991846FFF762FF049B5B68002B25D107
:1048DC00039B1B6804991846FFF778FF034683F087
:1048EC000103DBB2002B02D00F23059313E000BFB2
:1048FC00039B1B684FF48E711846FFF7F0FB0346C1
:10490C0083F00103DBB2002BF2D1039B1B680C215B
:10491C001846FFF7AAFC049B00225A61059B184617
:10492C0007B05DF804FB00BFC4080020287A000023
:10493C0082B00190019B1B791946074A2C2301FB7D
:10494C0003F3134414331B68002B14BF01230023FF
:10495C00DBB2184602B07047C408002010B582B014
:10496C0001900091009B9B69002B08D14FF484713E
:10497C000198FFF79FFB0198FFF761FC13E04FF4E0
:10498C0084710198FFF796FB009BDA68009B5B6AC9
:10499C00D4180198FFF753FC03462370009B5B6A05
:1049AC005A1C009B5A6202B010BD00B589B003902E
:1049BC000291019201238DF81030029B0693019B0A
:1049CC000593039B5B68039A116804AA10469847E9
:1049DC0000BF09B05DF804FB00B587B001900091F1
:1049EC0000238DF80830009B0493019B9B68039374
:1049FC00019B00225A61019B5B68019A116802AA13
:104A0C001046984700BF07B05DF804FB00B58BB0AB
:104A1C00019000914FF400710198FFF77CFB034665
:104A2C00002B39D04FF492710198FFF758FB0346D5
:104A3C00002B31D04FF492710198FFF73BFB4FF4F0
:104A4C0001710198FFF777FB009B93F8293083F0F5
:104A5C000103DBB2002B03D004210198FFF705FC06
:104A6C0002238DF80C300198FFF76FFB0346069379
:104A7C00009B9B690593009BDB680493009B0022C1
:104A8C009A61009B0022DA61009B5B68009A1168B6
:104A9C0003AA1046984752E004210198FFF73BFB0C
:104AAC000346002B4BD04FF484710198FFF717FB92
:104ABC000346002B43D000990198FFF74FFF009B52
:104ACC009A69009B5B6A9A4239D1009BDB69002B87
:104ADC0019D0009BDB680993009B5B6A0893009BD1
:104AEC00DA69009B9A61009B1A69009BDA60009B53
:104AFC000022DA61009B00225A62099A08990098F8
:104B0C00FFF753FF1BE0009B93F8293083F0010360
:104B1C00DBB2002B03D004210198FFF7A6FB4FF466
:104B2C0001710198FFF707FB009B00229A61009B23
:104B3C00596A009BDB681A460098FFF736FF4FF462
:104B4C008E710198FFF7CBFA0346002B24D0009B03
:104B5C005B690793009B1B6A079A9A420DD9009BCD
:104B6C0093F82830DBB283F00103DBB2002B04D0C6
:104B7C0000990198FFF70AFE0EE04FF48E71019830
:104B8C00FFF798FA009B5B69002B05D0009B5B69D3
:104B9C0019460098FFF720FF4FF4A2710198FFF718
:104BAC009EFA0346002B1CD04FF4A2710198FFF71C
:104BBC0081FA009B93F82930002B03D00021019837
:104BCC00FFF753FB009B9B69002B0AD0009B002234
:104BDC009A61009B596A009BDB681A460098FFF7A4
:104BEC00E4FE00BF0BB05DF804FB000008B5034900
:104BFC000348FFF70BFF00BF08BD00BFC40800202F
:104C0C000020004082B003468DF807309DF9073034
:104C1C00002B0CDB9DF8073003F01F0205499DF9B2
:104C2C0007305B09012000FA02F241F8232000BF93
:104C3C0002B0704700E100E082B003468DF8073007
:104C4C009DF90730002B13DB9DF8073003F01F0292
:104C5C0009499DF907305B09012000FA02F2203363
:104C6C0041F82320BFF34F8F00BFBFF36F8F00BFFE
:104C7C0000BF02B0704700BF00E100E082B0034605
:104C8C0000918DF807309DF90730002B0ADB009B53
:104C9C00DAB20C499DF907305201D2B20B4483F8B9
:104CAC0000230BE0009BDAB207499DF8073003F0B4
:104CBC000F03043B5201D2B20B441A7600BF02B070
:104CCC00704700BF00E100E000ED00E082B0019011
:104CDC00019B03F06043B3F1005F0CBF0123002381
:104CEC00DBB2184602B0704782B00190019B1B0BDF
:104CFC005BB2184602B0704700B583B003460A4653
:104D0C008DF8073013468DF806309DF80630072BCA
:104D1C0003D908496B20FCF744FF9DF806209DF948
:104D2C00073011461846FFF7A9FF00BF03B05DF826
:104D3C0004FB00BF6C7A000000B583B003468DF80D
:104D4C0007309DF907301846FFF75CFF00BF03B032
:104D5C005DF804FB00B583B003468DF807309DF970
:104D6C0007301846FFF768FF00BF03B05DF804FB7F
:104D7C0084B001900B46ADF80230BDF80230019AB8
:104D8C00134400221A60BDF80230019A13441B68C8
:104D9C000393039B00BF04B0704782B001900B4695
:104DAC00ADF80230BDF80230019A13441B68002B99
:104DBC0014BF01230023DBB2184602B0704782B047
:104DCC0001900091019BD3F80022009BDB431A4019
:104DDC00019BC3F8002200BF02B0704782B0019063
:104DEC000091019B009AC3F8042300BF02B07047E6
:104DFC0082B001900091019B009AC3F8082300BF78
:104E0C0002B0704784B00190019BD3F880340393B7
:104E1C00019B039AC3F88024039B184604B0704787
:104E2C0082B00190019B0822C3F8002500BF02B09C
:104E3C00704782B00190019B0022C3F8002500BF8F
:104E4C0002B0704784B0039002910192039B029AC6
:104E5C00C3F80C25039B019AC3F8142500BF04B0BA
:104E6C00704700B583B001904FF0FF324FF0FF3127
:104E7C000198FFF7E7FF00BF03B05DF804FB82B0B9
:104E8C000190019BD3F80C35184602B0704782B0E4
:104E9C000190019BD3F81435184602B0704782B0CC
:104EAC000190019BD3F80835184602B0704782B0C8
:104EBC000190019BD3F81035184602B0704784B0AE
:104ECC00039002910192039B029AC3F80825039B5D
:104EDC00019AC3F8102500BF04B0704700B583B029
:104EEC0001904FF0FF324FF0FF310198FFF7E7FFD1
:104EFC0000BF03B05DF804FB82B001900B468DF847
:104F0C0003309DF80330019A134401221A6000BF4C
:104F1C0002B0704782B001900B468DF803301346F7
:104F2C008DF802309DF803209DF802301343DBB25C
:104F3C001A46019BC3F86C2500BF02B0704782B0C3
:104F4C0001900091019B009AC3F8242500BF02B088
:104F5C00704784B0039002910192029A039BC3F8AC
:104F6C004425039B019AC3F8482500BF04B0704741
:104F7C0082B00190019BD3F84C35184602B07047B3
:104F8C0082B00190019BD3F83C35184602B07047B3
:104F9C0000B583B00190019B1B68184600F0A4F883
:104FAC000346002B04D10B494FF4F670FCF7F9FDC6
:104FBC00019B1B681F2B02D84FF0A04306E0019BFE
:104FCC001B6803F01F02019B1A60034B184603B0C9
:104FDC005DF804FB9C7A00000003005000B585B01E
:104FEC000190084611461A4603468DF803300B46CD
:104FFC008DF8023013468DF8013001AB1846FFF7DF
:10500C00C7FF03909DF803209DF802305B001A4304
:10501C009DF801309B001A439DF818301B0242EAA0
:10502C0003019DF81C301B04019A1943039B02F5E4
:10503C00E07243F8221000BF05B05DF804FB00B528
:10504C0085B00390002301930023009300230122D9
:10505C0001210398FFF7C2FF00BF05B05DF804FB08
:10506C0000B585B003900B468DF80B309DF80B30D6
:10507C000022019200220092002200210398FFF7E7
:10508C00ADFF00BF05B05DF804FB00B585B0039023
:10509C000023019300230093002301220021039895
:1050AC00FFF79CFF00BF05B05DF804FB00B585B0B1
:1050BC00019001AB1846FFF76BFF0390019B012297
:1050CC0002FA03F31946039800F004F800BF05B088
:1050DC005DF804FB82B001900091019B009AC3F82B
:1050EC00082500BF02B0704784B00190019B5B099A
:1050FC00029300230393029B002B03D0029B012BF2
:10510C0004D007E04FF0FF33039303E04FF6FF7337
:10511C00039300BF019B03F01F030193039A019BB0
:10512C0022FA03F303F00103002B14BF0123002325
:10513C00DBB2184604B0704700B583B00190009103
:10514C00009B1B68B3F1FF3F09D0009B1B681846FE
:10515C00FFF7ACFF009B1B681846FFF770FF009B26
:10516C005B68B3F1FF3F05D0009B5B6800211846DC
:10517C00FFF776FF019B1A68009B9B691946104646
:10518C00FFF7DDFE019B1868009B597D009B1B7D82
:10519C001A46FFF7BFFE019B1868009B1968009B1D
:1051AC005B681A46FFF74EFE009B1B7D012B22D13C
:1051BC00009B9B68B3F1FF3F05D0009B9B680021CF
:1051CC001846FFF74DFF009BDB68B3F1FF3F09D09A
:1051DC00009BDB681846FFF769FF009BDB681846ED
:1051EC00FFF72DFF019B1868009BD968009B9B68FB
:1051FC001A46FFF764FE00BF03B05DF804FB000025
:10520C0000B583B001900B468DF80330019B1B68F1
:10521C004FF488711846FFF7ABFD019B1B684FF4E8
:10522C0090711846FFF7A4FD019B1B684FF4927117
:10523C001846FFF79DFD019B1B684FF4A2711846A1
:10524C00FFF796FD019B1B684FF4AC711846FFF7F6
:10525C008FFD019B1B680F491846FFF7BFFD019B93
:10526C001B681846FFF740FD03461A469DF80330AD
:10527C0019461046FFF740FD019B1B681846FFF7C7
:10528C0033FD03461846FFF757FD00BF03B05DF82A
:10529C0004FB00BF1003420000B583B00190019BDA
:1052AC001B6808491846FFF7A3FD019B1B681846AD
:1052BC00FFF71AFD03461846FFF74CFD00BF03B07D
:1052CC005DF804FB1003420000B587B00190019B10
:1052DC001B681846FFF7D3FD0590019B1B68184609
:1052EC00FFF7D5FD0490019B1B681846FFF7D7FD0F
:1052FC000390019B1B681846FFF7D9FD0290019B98
:10530C001B681846FFF7ADFD019B1B681846FFF79D
:10531C00E5FD059BB3F1FF3F02D00598FFF7B5FE05
:10532C00049BB3F1FF3F02D00498FFF7AEFE029B43
:10533C00B3F1FF3F02D00298FFF7A7FE039BB3F136
:10534C00FF3F02D00398FFF7A0FE00BF07B05DF847
:10535C0004FB000000B587B0039002910192029B00
:10536C00002B03D12B49CF20FCF71BFC039B1B7993
:10537C001A461346DB0013449B00274A134404933C
:10538C0000230593049B93F82030002B03D00823B3
:10539C000593059B3AE0039B1A68039B1B791946FE
:1053AC001E4B53F8213019461046FDF7E1FD03461C
:1053BC00002B03D011230593059B27E0029903983A
:1053CC00FFF7BAFE049B019A5A60029B1A69049B70
:1053DC001A60049B5B68002B05D0029B1B7F19464F
:1053EC000398FFF70DFF039B1B681846FFF718FD8A
:1053FC00049B00229A61049B0022DA61049B002228
:10540C005A61049B012283F82020059B184607B0A3
:10541C005DF804FBD47A0000F0080020187B000033
:10542C0000B585B00190019B1B791A461346DB0031
:10543C0013449B002A4A13440393019B1B68029359
:10544C00039B5B68002B02D00198FFF725FF2021FE
:10545C000298FFF7B4FC039B9B69002B08D04FF418
:10546C00A2710298FFF784FC04210298FFF744FD17
:10547C004FF4AC710298FFF77BFC0C210298FFF7FC
:10548C003BFD00BF4FF4AC710298FFF786FC03465E
:10549C0083F00103DBB2002BF4D1039B9B69002B3F
:1054AC000AD04FF4A2710298FFF777FC034683F001
:1054BC000103DBB2002BE5D10298FFF7BAFC01988F
:1054CC00FFF702FF0298FDF78DFD039B002283F886
:1054DC002020039B00225A6000BF05B05DF804FB3E
:1054EC00F008002000B589B0039002910192039B53
:1054FC001B791A461346DB0013449B00574A13448E
:10550C000593059B93F82030012B04D0544940F2AD
:10551C005310FCF746FB029B002B04D150494FF46F
:10552C00AA70FCF73EFB019B002B04D14C4940F2C6
:10553C005510FCF736FB039B1B79002B03D1019B09
:10554C00B3F5803F04D346494FF4AB70FCF729FB0D
:10555C000298FFF7BBFB034683F00103DBB2002B81
:10556C0003D010230793079B73E0039800F07AF89D
:10557C000346002B03D011230793079B69E0059B7F
:10558C00019A5A61059B029A9A6000230793039B28
:10559C001B684FF490711846FFF7EAFB039B1B68DE
:1055AC004FF4AC711846FFF7E3FB039B1868059B9F
:1055BC009968059B5B691A46FFF7CBFC039B1B683C
:1055CC0008211846FFF798FC059B5B68002B3FD120
:1055DC00039B1B684FF490711846FFF7DEFB0346E4
:1055EC008DF81B30039B1B684FF4AC711846FFF70A
:1055FC00D4FB03468DF81A309DF81B3083F0010361
:10560C00DBB2002B06D09DF81A3083F00103DBB21D
:10561C00002BDDD19DF81A30002B02D00F230793FD
:10562C0013E0039B1B680C211846FFF765FC00BFB9
:10563C00039B1B684FF4AC711846FFF7AEFB034697
:10564C0083F00103DBB2002BF2D1059B00225A61DF
:10565C00079B184609B05DF804FB00BFF00800205A
:10566C00D47A000082B00190019B1B791946084A3C
:10567C000B46DB000B449B00134414331B68002BBC
:10568C0014BF01230023DBB2184602B0704700BFE1
:10569C00F008002000B589B003900291019201231B
:1056AC008DF81030029B0693019B0593039B5B685E
:1056BC00039A116804AA1046984700BF09B05DF818
:1056CC0004FB00B587B00190009100238DF80830E1
:1056DC00009B0493019B9B680393019B00225A61DE
:1056EC00019B5B68019A116802AA1046984700BF9B
:1056FC0007B05DF804FB00B589B0019000914FF440
:10570C0092710198FFF749FB0346002B22D04FF40E
:10571C0092710198FFF72CFB02238DF80830019849
:10572C00FFF770FB034605930198FFF729FC03462E
:10573C000493009BDB680393009B00229A61009BFF
:10574C000022DA61009B5B68009A116802AA10467D
:10575C0098473BE04FF488710198FFF71EFB034616
:10576C00002B33D04FF488710198FFF701FB01989F
:10577C00FFF706FC0790009B9B69079A9A4225D17C
:10578C00009BDB69002B17D0009BDB680693202164
:10579C000198FFF714FB009BDA69009B9A61009B50
:1057AC001A69009BDA60009B0022DA61069A07995D
:1057BC000098FFF76FFF09E0009B00229A61009BA5
:1057CC00DB681A4607990098FFF764FF4FF4A27143
:1057DC000198FFF7E2FA0346002B18D04FF4A271A0
:1057EC000198FFF7C5FA009B9B69002B0FD0009B1B
:1057FC0000229A61009B0022DA610198FFF7C0FB3E
:10580C000146009BDB681A460098FFF743FF4FF4F4
:10581C0090710198FFF7C1FA0346002B14D04FF496
:10582C0090710198FFF7A4FA0C210198FFF764FB23
:10583C00009B5B69002B07D00198FFF799FB03468F
:10584C0019460098FFF73DFF4FF4AC710198FFF734
:10585C00A4FA0346002B10D04FF4AC710198FFF75B
:10586C0087FA009B5B69002B07D00198FFF780FB40
:10587C00034619460098FFF724FF00BF09B05DF8F6
:10588C0004FB000008B503490348FFF734FF00BFD1
:10589C0008BD00BFF00800200020004082B0034685
:1058AC0000918DF807309DF90730002B0ADB009B27
:1058BC00DAB20C499DF907305201D2B20B4483F88D
:1058CC0000230BE0009BDAB207499DF8073003F088
:1058DC000F03043B5201D2B20B441A7600BF02B044
:1058EC00704700BF00E100E000ED00E000B583B0C0
:1058FC000190019B013BB3F1807F01D301230FE0A9
:10590C00094A019B013B536007214FF0FF30FFF721
:10591C00C5FF054B00229A60034B07221A60002337
:10592C00184603B05DF804FB10E000E000B583B04E
:10593C000190019B1B68184600F03BF80346002BB6
:10594C0004D10B494FF4F670FCF72BF9019B1B6843
:10595C001F2B02D84FF0A04306E0019B1B6803F0FD
:10596C001F02019B1A60034B184603B05DF804FB41
:10597C001C7B00000003005000B585B0019001AB0A
:10598C001846FFF7D3FF0390039800F00AF802467D
:10599C00019B22FA03F303F00103184605B05DF8EE
:1059AC0004FB82B00190019BD3F81035184602B06D
:1059BC00704784B00190019B5B0902930023039311
:1059CC00029B002B03D0029B012B04D007E04FF06D
:1059DC00FF33039303E04FF6FF73039300BF019B68
:1059EC0003F01F030193039A019B22FA03F303F0C4
:1059FC000103002B14BF01230023DBB2184604B0B3
:105A0C00704700B583B00190019B04331846FDF735
:105A1C006DFE00BF03B05DF804FB000000B587B05D
:105A2C006B4600221A605A609A60DA601B2300935E
:105A3C001A2301934FF0CC73029302238DF80C3090
:105A4C006946002300220A48FDF77EF90590059B64
:105A5C000493049B002B04D0064A8E210498FBF778
:105A6C00ADFF0348FFF7CDFF00BF07B05DF804FBA7
:105A7C00EC7B00004C7B000000B583B0334B1B88E3
:105A8C0001339AB2314B1A800023019355E0304A0E
:105A9C00019B13441B781846FFF76EFF0346D9B2DF
:105AAC002C4A019B13440A461A702A4A019B134440
:105ABC001A782949019B0B441B789A4205D1274A35
:105ACC00019B134405221A7034E0244A019B1344B1
